:10000000D3C20000EEC20000ECC200000C947223C8
:10001000E8C20000E6C20000E4C20000E2C2000044
:10002000E0C20000DEC200000C94EF280C94BB2953
:100030000C94DA21D6C20000D4C20000D2C2000063
:10004000D0C20000CEC20000CCC20000CAC2000074
:10005000C8C200000C949222C4C20000C2C20000B8
:10006000C0C20000BEC20000BCC20000BAC2000094
:10007000B8C20000B6C20000B4C20000B2C20000A4
:10008000B0C20000AEC20000ACC20000AAC20000B4
:10009000A8C20000A6C20000A4C20000A2C20000C4
:1000A000A0C200009EC200009CC2000035001E00DD
:1000B0001F00200021002200290014001A0008005F
:1000C000150017002B0004001600070009000A00A5
:1000D000E1001D001B00060019000500E000E30020
:1000E000E300E2002800A8003500270026002500D4
:1000F000240023002A00130012000C0018001C002A
:10010000340033000F000E000D000B00E500380036
:100110003700360010001100E400E700E700E600B9
:100120002C00AE00FD377A585A000004E6D6B446DB
:100130000200210116000000742FE5A3E0089502DB
:100140003A5D003D8889C65436C3174FE4EFB04B83
:10015000C5E15E373AE75812AD946B776997C9EFFE
:100160001F115039A7C95CC178F00E3359E0C86639
:10017000C052CC6FA83669FB7B449E3C5A2B21D0E1
:100180008E4935EBE331E62A6C164E406632D01CC0
:10019000AD1D311A253870DBEC9649D35C068BB364
:1001A000FD3943C39CBA7747A8BB23E2421D7607BB
:1001B000E0C6BDACA38C2063A054838CEC65F8250D
:1001C00024EA843F98FD7876E77A9FEE18A9225BAF
:1001D0008DB00447C3548E2C3E820A91C7B99DDE70
:1001E000DFE4F934195B9EC12D3245658617D2A430
:1001F000C04D796679EC222AABE28948459338A74D
:100200005A276D1B271BA931290A4662DE569C9F7F
:10021000E0CD21B6712973C08E5F1AE6D5B832CC15
:1002200010CD10A75CEBF0C361807B7A9D39ACAC3C
:10023000EFE580920B9F458F41B97EC9130DB7D969
:1002400059E54E7AB506D3F382A1FDC5A36D5B01D6
:10025000C041647CE021CB3FA06EAAF4D8712A771C
:10026000267A249EE079499D633B766C38B7EF622D
:100270000B2CBE372BEE9CC415DE433DF6AB7BFD4D
:10028000CF33D8D6F06805D5D43AD156ECCE166126
:1002900064618A292CF78228F3B60A08FF2B7C2395
:1002A0001535F30678B05BD74B6DD7C2A178DDF07A
:1002B0007CFE9B683D104F6C05AF8E8606D3950F74
:1002C0005EBF5FD1CAF7E23D8188874FAD5B7A8F11
:1002D00044CBCBAC6841C851DC9FDF40AB48639353
:1002E00045F9B1A686AE4A7F26F4EF2AD666B9BA9A
:1002F00028316D1AE449F3FBF769F55EAE80FB54D3
:100300001A5344EBFD584ABCFA7760102448ECB00D
:1003100071B27C1DF06EC9A3212DC648E969424A1D
:1003200095F315A3A39C0F057684A0271505AD2290
:10033000D32D95E189704958062803076561E8F8CF
:10034000E30EB1B370EBC397DABBB38E1B492252F5
:100350000B281195AD09EBD4DE254078E2F6CD5798
:1003600077F4116EA68B1D2088BBD035841BB2E5B7
:10037000B2B8880977FA8644305295E4000000004C
:1003800089F60FB156D17F570001D60496110000AF
:1003900010FA7D77B1C467FB020000000004595ACF
:1003A00000000000000000002A2B280000000000D0
:1003B0000000000000000000000000290000000014
:1003C0002C1E3420212224342627252E362D373882
:1003D000271E1F202122232425263333362E37388B
:1003E0001F0405060708090A0B0C0D0E0F10111249
:1003F000131415161718191A1B1C1D2F3130232D15
:10040000350405060708090A0B0C0D0E0F10111212
:10041000131415161718191A1B1C1D2F3130354CC3
:1004200000000000000000000000000000000000CC
:1004300000000000000000000000000000000000BC
:10044000000000007E0F00D4FFFFFFC7000000780F
:100450001C037600690061006C003A0066003600FB
:1004600034006300320062003300630000001803B0
:1004700063006F006D007000720065007300730010
:1004800069006F006E0000001403420072006900F2
:1004900061006E0020004C006F0077000000040334
:1004A000090409025B00030100A0FA09040000012D
:1004B0000301010009211101000122440007058107
:1004C00003080001090401000203000000092111D2
:1004D0000100012222000705820320000107050315
:1004E000032000010904020001030000000921119A
:1004F00001000122320007058403200001120100DF
:10050000020000000832FC8702010001020301061C
:1005100060FF0961A1010962150026FF00952075A1
:100520000881020963150026FF00952075089102D5
:10053000C005010980A101850319012AB700150131
:1005400026B700950175108100C0050C0901A101B5
:10055000850419012AA002150126A0029501751033
:100560008100C005010906A101050719E029E71569
:100570000025019508750181029501750881010525
:1005800007190029FF150026FF0095067508810050
:100590000508190129051500250195057501910228
:1005A000950175039101C00011241FBECFEFDAE061
:1005B000DEBFCDBF11E0A0E0B1E0E8E0F9E502C0A8
:1005C00005900D92AE3CB107D9F723E0AEECB1E057
:1005D00001C01D92A037B207E1F70E9472150C947A
:1005E0002E2C0ECD811112C06A3080F4463070F48A
:1005F000E42FF0E086E0689FE00DF11D1124EE0F7E
:10060000FF1FE455FF4F85919491089581E090E09C
:1006100008959C019A9581159F4118F5F901EE27DF
:10062000F270832F8170B90166277470A901442785
:10063000587034FF0CC08295807FEF2B09F08062E8
:10064000672B09F08064452B69F080680895EF2BD3
:1006500009F08260672B09F08460452B19F08860EF
:10066000089580E00895CF93DF93EB01D2DFFE0180
:100670000995DF91CF910895CF93DF93EC01805ED0
:100680009109089720F060E977E0209711F46EE572
:1006900075E0CE01E8DF8C2F8FD1DF91CF910895E7
:1006A000CF93DF93EC01C4D1CE01805E910908970E
:1006B00020F065E977E0209711F463E675E0CE015C
:1006C000D2DFDF91CF91089581E00895FDCF0895A5
:1006D00081E00895F9CF0895FDCF08950895FECFE4
:1006E0000895A6E0B0E0E7E7F3E00C947F2B4983A0
:1006F0005A839E833091D50189819A81311117C027
:100700003E81332389F0222379F03CD5182F682FBE
:1007100089819A8115D569817A81812F0E94AF0FD5
:100720002696E3E00C949B2B1CD5182FF4CF2AD5EA
:1007300069817A81F3CFFC01262F4081518162814A
:10074000738184819581CDCF0895CF93DF93D82F86
:10075000C92F61E0F0DF6D2F7C2FB8DFDF91CF91E3
:100760000895CF93DF93D82FC92F60E0E4DF6D2F7A
:100770007C2FB5DFDF91CF91089581E00895FDCF03
:100780000895CF93C82FE5D38C2FF9DF2FEF84E3A3
:100790009CE0215080409040E1F700C00000CF91E4
:1007A000089581E0EEDF0C94B622089580E0E9DF41
:1007B0000C94C72208950F931F93CF93DF93EC01FE
:1007C0008B010E942E1E882321F061E0C801B3DF57
:1007D000EC01B801CE010E948B1F882309F44DC0A3
:1007E000B801CE010E947918882309F446C0B801E7
:1007F000CE0172DF882309F440C0B801CE010E9407
:10080000561E8823D1F1B801CE010E94AF1D882366
:10081000A1F1B801CE010E948E1B882371F1B801AD
:10082000CE010E94651B882341F1B801CE010E94D0
:10083000ED1E882311F1F8018581882381F0CA35E6
:10084000FCE7DF0721F170F4C130ECE7DE07E9F0E7
:10085000C330FCE7DF07B9F0C115DC4769F0C80118
:1008600037DF0CC0CB35ECE7DE07A1F0CC35DC4739
:10087000B1F70E941C0DF3CF94DF80E0DF91CF91A0
:100880001F910F9108950E942B0D90DFF6CF0E94CB
:10089000250DE5CF0E94280DE2CFCF93DF93D82F0F
:1008A000C92F61E048DF6D2F7C2F85DFDF91CF916D
:1008B00008950E94BB211EC008951FD00C94BF2133
:1008C0000895089581E008950895CF93DF93D82F78
:1008D000F9DFC82F882311F08D2FF6DF8C2FDF91E1
:1008E000CF9108950895CF93C82FEBDF8C2FEDDFC4
:1008F000CF91089580E0F7CF08950E94CE20F3CFE6
:100900000895CF930E94CE20C82F8091D0018C17DC
:1009100071F0C093D0010E9446226093D101709380
:10092000D2018093D3019093D4018C2FDCDFCF913F
:100930000895ADE0B0E0EFE9F4E00C947E2B488739
:1009400059876A877B878C879D87911189D71F82FA
:1009500026E0FE013896CE010196DC0101900D9251
:100960002A95E1F7209146038C0122FF09C035D773
:10097000882319F082E00E94F30C15D78111C3D7A8
:100980008D8181110CC029813A814B815C816D81FF
:100990007E818F8188D62D96E4E00C949A2BC80135
:1009A000D4DE8111F0CFF7CFFC018481813019F4BE
:1009B000808191810FC40895CF93C82F882389F037
:1009C0008CEF8C0F813A78F48C2F0E944D21882374
:1009D00021F08C2F0E949121DDD78C2F0E948A213B
:1009E000D9D7CF91089580E28C0F883040F4C7703A
:1009F00081E001C0880FCA95EAF710D7F1CF8BE5E7
:100A00008C0F833038F42C2F2452330BC9010E94F1
:100A1000ED20E7CFC85ACB3120F7EC2FF0E0EE0FF6
:100A2000FF1FE35CFE4F808191810E941321D9CF8B
:100A3000882329F19CEF980F913A20F40E9491218C
:100A4000A9C7089590E2980F983048F4877091E014
:100A500001C0990F8A95EAF7892FE6D6F1CF9BE579
:100A6000980F933028F480E090E00C94ED200895E6
:100A7000885A8B3120F480E090E00C941321089583
:100A80001F93CF93DF93182FEB0196DF209731F45C
:100A9000812FCEDFDF91CF911F9108958FE99FE0E5
:100AA0000197F1F700C000002197F0CF60E070E0FF
:100AB000893311F460E570E0E3CF0895882311F0E5
:100AC000ADD668C70895882311F0AED663C70895E0
:100AD000A0E0B0E0EEE6F5E00C947A2B6C01D62FA6
:100AE000C72FFC010581F680F2948FE0F8228BD6A7
:100AF000E82E8823E9F0E02E0023D1F08C2F807FB0
:100B0000803461F080E28D0F883088F18C2F807EF8
:100B1000803221F4D23058F1FF2049F18091460310
:100B200082FF25C082E05FD76ED691E0E82EE926ED
:100B30008C2F82958F70883009F4DDC060F5843089
:100B4000C0F41C2F1F708230B0F1C07FC03211F092
:100B50001295107FDD2309F456C0D13009F490C0FE
:100B6000002309F49BC0FF2009F465C035C0E12CC7
:100B7000DFCF843009F4A2C0EE2009F471C129D678
:100B800080FD6EC1F60115821ED64ED2C601AAD1D5
:100B90001AD655D265C1893009F411C18A5F8F70A8
:100BA000823050F7D23F09F017C18C2F8F7101119D
:100BB00011C13AD2C9C0C03110F01295107F002384
:100BC00081F0112349F080E28D0F883010F0D111AF
:100BD00005C0812F23D6DED68D2F21C0812F32D69E
:100BE000FACF8D2F25DF112309F4C6CF80E28D0FB8
:100BF000883010F0D11103C0812F16D602C0812F8A
:100C000027D6C8D6B9CF8091460382FD10C00023F5
:100C100041F0112319F0812F01D6BCD680E0CCDE43
:100C2000ABCF80E005DF112309F4A6CFE5CF002389
:100C3000A9F0F11003C0812F41DF9ECFF1E0FF1238
:100C400003C0812F31D698CF25E0F21295CF812FA6
:100C500035DF812F3FD6812F0CD68ECFF11007C004
:100C6000812F31DF812F36D6812F0FD685CF81E0BE
:100C7000F81282CFD0D58123882309F47DCFF0CF1D
:100C8000002329F095E09F1508F476CFD4CFE4E057
:100C9000EF1508F471CF812F16DF6ECFFF20D9F347
:100CA000D93349F4FFEF27EE83E0F1502040804034
:100CB000E1F700C000008D2FBBDE5ECF8C2F869544
:100CC00086958370882369F0813009F055CF8D2F88
:100CD0009C2F9370011102C080E090E00E941321CC
:100CE0004BCF8D2F9C2F9370011102C080E090E0BC
:100CF0000E94ED2041CF8C2F837081112FC00111F4
:100D000023C04D2F429546954770440F440F8D2FB9
:100D10008F70042E01C0880F0A94EAF7D071DD238A
:100D200041F02FE030E001C0220F4A95EAF7D22FC0
:100D3000D095C695C695C3708D2BC23059F0C3307F
:100D400059F0C13029F053D10E94CE20CCDD14CF10
:100D500049D1FACF51D1F8CF43D1F6CF002331F1A9
:100D6000C0FFF2CF4D2F429546954770440F440F78
:100D70008D2F8F70042E01C0880F0A94EAF7D0716E
:100D8000DD2341F02FE030E001C0220F4A95EAF761
:100D9000D22FD095C695C695C3708D2BC23059F011
:100DA000C33059F0C13029F069D1CECF823060F222
:100DB000D9CF5FD1C9CF67D1C7CF27D1C5CFCF702A
:100DC000002329F08C2F30D18D2F78DEBDCF8D2FD1
:100DD0007ADE8C2F34D1B8CFD33F68F4D03FB1F056
:100DE000D13F69F1002309F458C0FF2009F452C033
:100DF0008D2FE2DDA9CFD33FB1F0D43FE1F0011157
:100E0000F4CFF11058C08C2F8F71E4CF002341F044
:100E100094E09F1508F498CF8C2F8F711FD194CF39
:100E2000E5E0FE16F7CF002321F08C2F8F71F4D070
:100E30008BCFEFD089CF8091460382FD05C08C2FE8
:100E40008F71002339F2B5CE0023C9F0C2D48430AB
:100E500061F4C0D58C2F8F71F2D00E94CE2043DD7B
:100E6000CDB7DEB7E8E00C94962BF4E0FF15A8F3BD
:100E7000CF718C2FD9D063E08C2F91D5EECF24E0A9
:100E80002F1528F4A7D564E08C2F8F71F6CF81E061
:100E9000AAD5E3CF8C2F8F718CCEFF2009F4B3CF6E
:100EA000D93349F48FEF97EEE3E081509040E04072
:100EB000E1F700C000008D2FBBDD46CF0F931F93DD
:100EC000CF93DF93EC01688179818D818ED18C0184
:100ED000DFD085D0B801CE01FBDDDF91CF911F912E
:100EE0000F910895CF93DF93EC018C81882381F0DB
:100EF000CE01D3DC81110FC086D4882349F08D81C7
:100F0000882331F08091460382FF02C082E06BD5D6
:100F1000DF91CF910895CE01D1DFCE0122DCF8CF51
:100F2000882311F08FD436C50895882311F090D40A
:100F300031C5089580E090E00E94ED2080E090E0CF
:100F40000E9413218DD426C508950E949821F2CFC6
:100F5000089572D4FACF0895282F92959F709630F5
:100F600091F060F4925F9F70923030F481E0203F06
:100F700079F030F4283E30F080E008959A5FF3CFA6
:100F8000243FD1F7089581E0283EE0F3213FF9CFD7
:100F90000895FC018481882329F0808191811AD1F0
:100FA000DBCF089580E00895A6E0B0E0EAEDF7E039
:100FB0000C94802B2696E2E00C949C2BA7E0B0E0EA
:100FC000E4EEF7E00C94802B2796E2E00C949C2B47
:100FD0000895FECF0895FDDF8093EF0108950895F1
:100FE000FACF08959091EF01892BF5CF0895909154
:100FF000EF018923F0CF08959091EF018927EBCF7E
:101000000895E6CF0895FDCF0895FDDF8093EE01AA
:10101000089580E0FACF089591E001C0990F8A9574
:10102000EAF7892FF2CF089521E030E001C0220FC6
:101030008A95EAF78091EE01822BE7CF089521E0AF
:1010400030E0A90102C0440F551F8A95E2F7CA019A
:1010500080959091EE018923D8CF089521E030E06A
:1010600001C0220F8A95EAF78091EE018227CDCF49
:1010700008959091EE01892BC8CF08959091EE01CB
:101080008923C3CF08959091EE018927BECF08959B
:1010900008959B01677091E001C0990F6A95EAF786
:1010A00063E0369527956A95E1F7B901660F771FDA
:1010B000260F371FFA01E20FF31F40E050E0682FC0
:1010C00070E08191DF0111979B01042E02C03695DB
:1010D00027950A94E2F721702195282729232827AC
:1010E0002C934F5F5F4F4330510559F708959C0192
:1010F000A82FA77083E0369527958A95E1F7C90157
:10110000880F991F820F931FFB01E80FF91F40E022
:1011100050E080E0219130E00A2E02C036952795FC
:101120000A94E2F721703327042E01C0220F0A949B
:10113000EAF7822B4F5F5F4F4330510559F708950F
:10114000282F862F9A3060F4263050F4622F70E0FA
:1011500026E0929F600D711D112446ED51E099CF5C
:101160000895292F9A3060F4863050F490E066EDAF
:1011700071E036E0239F800D911D1124B8CF0895B2
:1011800080E00895A0E0B0E0E8ECF8E00C947B2B60
:101190007C010091EE018091EF01082BC3E0D0E0CB
:1011A00010E0C8010C2E02C0959587950A94E2F7CD
:1011B00080FD09C02197A8F7D12C8D2DCDB7DEB7C2
:1011C000E7E00C94972BDC2EB7018C2FE3D6019728
:1011D00089F3F3CFCF93DF93D82FC92FD3DF6D2FB0
:1011E0007C2FD8D6DF91CF9108951F93CF93DF93B3
:1011F000162FD72F9091D501992339F0862F972F4D
:10120000E9DFDF91CF911F910895882369F0862F40
:10121000972FB8DFC82F682F812F9D2F91DF612F67
:101220007D2F8C2FB7D6EDCF862F972F9ADFC82F23
:10123000F6CFE1E0F0E0DF0102C0AA0FBB1F6A9524
:10124000E2F7BD01DF0102C0AA0FBB1F4A95E2F71A
:101250006A2B01C0EE0F2A95EAF7962F9823961372
:1012600002C08E2B0895E0958E230895242F462FDB
:10127000682F8091EE01DDDFC8CE08950F931F9394
:10128000CF93E091F001C7E08091F1018E1304C08B
:10129000CF911F910F9108950E2F10E0CE9FF00176
:1012A0001124EE50FE4F20813181428153816481AF
:1012B0007581868183DEF8013196E770E5CF209154
:1012C0002A0230912B0240912C0250912D02609104
:1012D0002E0270912F028091300270CE0895E0911D
:1012E000F0019091F10127E0E91302C080E0089538
:1012F000AE2FB0E02E9FF0011124EE50FE4F318151
:10130000361306C03081381303C03581341304C04E
:10131000FD013196E770E8CF81E00895A0E0B0E0EC
:10132000E4E9F9E00C947B2B80913002803108F0E5
:1013300048C080912F02882309F443C0C091F00176
:1013400087E0D82E8091F1018C17D9F1EC2EF12C89
:10135000DC9EE0011124FE01EE50FE4F84818823C3
:10136000A9F1918180912B02981330C090818091D6
:101370002A0298132BC08581811128C00281138114
:1013800080912C0290912D02081B190B60E08AE2DB
:1013900092E0D1D96AE272E00E945D18081719073D
:1013A000A8F4809130028F70806180933002C85021
:1013B000DE4F88818F70806188838AE292E092DDBF
:1013C0005DDFCDB7DEB7E7E00C94972BE701219600
:1013D000C770B8CFADE0B0E0E0EFF9E00C94732B4C
:1013E0008C0186E0F801DE01189601900D928A9535
:1013F000E1F7F80160805180F580C280D38074806D
:101400008AE2A82E82E0B82E80912E02811117C0A8
:10141000772009F4F3C0FF2009F43AC1C801B9DD0F
:10142000882309F435C187E0F801D50101900D92B8
:101430008A95E1F7C501B8DA71DF41DFDFC0E090DE
:101440002F0280912C0290912D024601881A990A50
:1014500060E08AE292E0EE2009F4D3C06CD96AE23F
:1014600072E00E945D188816990608F09BC07720EC
:1014700009F4C4C08091300220912B02F8019181BF
:10148000803108F055C0291319C020912A0290819B
:10149000291314C0F11046C08F7080618093300210
:1014A0000EDF8AE292E01EDD80913002F801868331
:1014B000F12C8F2D2D96EFE00C948F2BF11032C074
:1014C00040E0652D862D0BDF40E0652D862D07DF82
:1014D000F82E8111EDCF888599857CDE292F229504
:1014E0002F70903450F49F70223078F0992389F057
:1014F000F8019681903168F4DCCF2A5F2F7022309A
:1015000060F0C801EFDCFE2CD4CF992311F08823C2
:1015100081F2805E883068F2F4CF803F50F2815FC4
:101520008230F9CF80913002816080933002C0CF49
:10153000291313C020912A02908129130EC0F110A3
:101540000CC08683C801CEDC87E0F801AAE2B2E0D5
:1015500001900D928A95E1F770CFC8011ADD8823BA
:1015600009F496C0FF2009F493C0809130028032C4
:1015700080F020912A0230912B023A832983DC8269
:10158000CB8290912E029D831E828F83CE01019685
:10159000A9DC87E0F801AAE2B2E001900D928A95F9
:1015A000E1F74ACF80913002803188F4488559852F
:1015B0006A857B858C859D85F7DC8AE292E092DCEA
:1015C00087E0F50111928A95E9F779DE71CF7720EE
:1015D000A9F020912B02F80191812913BECF20910F
:1015E0002A0290812913B9CFF110B7CF8683C801A1
:1015F00079DC87E0F50111928A95E9F7FF24F394ED
:1016000058CF99D86AE272E00E945D188816990650
:1016100008F041C0772091F3FF20D1F190912B0287
:10162000F801818198132BC090912A028081981330
:1016300026C080912C0290912D02C81AD90AF8EC8C
:10164000CF16D10498F48091300280FD0FC0803114
:1016500068F0F8018683982F907F903F09F472CF4D
:10166000982F907F905F8F70892B6BCF87E0F80168
:10167000AAE2B2E001900D928A95E1F7BFCFC801CE
:1016800088DC811186CF80913002816080933002A6
:10169000C80128DCB3CF488559856A857B858C8550
:1016A0009D8582DC8DCFAEE0B0E0E9E5FBE00C94F7
:1016B0007F2B288739874A875B876C877D878E8752
:1016C000CE01089687DE8823A9F06C85662339F061
:1016D000288539854A855B857D858E856FDC17E099
:1016E0008091F0019091F10189133CC02E96E3E0C6
:1016F0000C949B2B87E0FE013896DE011196019039
:101700000D928A95E1F72091F1014091F0018C85CD
:10171000882329F330E0C90101968770992750E0AA
:101720008417950791F097E0929FD001939FB00D99
:101730001124AE50BE4FFE01319601900D929A9544
:10174000E1F78093F1019ADDCACF03DC1092F10139
:101750001092F00187E0EAE2F2E0DF011D928A9543
:10176000E9F7BDCF189FC00111248E509E4F32DE85
:10177000882309F4BBCFE091F0011E9FF0011124F2
:10178000EE50FE4F20813181428153816481758109
:10179000868114DC8091F00190E001968770992792
:1017A0008093F0019DCF0E943A2220913C0230911B
:1017B0003D02AC01421B530B9A0181E028383341B2
:1017C00008F480E0089580913B0286958695869581
:1017D000089580913B02877008950E943A222091DB
:1017E000390230913A02821B930B8838934148F0BA
:1017F00080913B0282FB882780F991E089278170E4
:10180000089580E0FCCF90913B02977081E09111A8
:1018100001C080E0089580914902089590914902A5
:10182000982B909349020895982F909580914902A2
:101830008923809349020895109249020895809166
:101840004802089590914802982B90934802089579
:10185000982F90958091480289238093480208959B
:1018600010924802089580913F0208950895FECF96
:101870000895982F80913E02282F2923291721F0BF
:10188000892B80933E02F3CF089590913E02292F39
:101890002823222329F08095892380933E02E7CFD5
:1018A00008950895FECF0895CF93C82F80913F02E9
:1018B0008C238C1769F00E943A2290933D0280930A
:1018C0003C0280913F028C2B80933F028C2FEADFF9
:1018D000CF91089590913F02292F2823222379F058
:1018E0008095892380933F02882351F00E943A22F9
:1018F00080933C0290933D0280913F02D3CF0895A4
:1019000080E090E0F5CF80913F02882341F0109273
:101910003F0210923D0210923C0280E0C3CF089536
:101920000F931F93CF93DF9300910001109101015A
:10193000C091490280914802C82B80913F028823C0
:1019400051F031DF8111DFDFD0913F020E94392158
:101950008111D9DFCD2BF801C083C0910001D09156
:10196000010148E050E061E372E0CE010E94B02B3B
:10197000892B59F088E0FE01A1E3B2E001900D92BD
:101980008A95E1F7CE010E94E220DF91CF911F916D
:101990000F910895C5CF08950895FECF08959091B1
:1019A000460392FF15C098E0899F90011124622B95
:1019B00060933B0239DB0E943A2290933A02809373
:1019C000390280913B02869586958695E6CF0895EB
:1019D0002BCB089510923B0210923A0210923902DA
:1019E00080E0DBCF089590913B028095892380931E
:1019F0003B02282F277021110BC0891749F09091C5
:101A0000460392FF05C086958695869518DBE2CF42
:101A100008959091460392FB222720F9281759F048
:101A200080FB92F990934603809145039091460381
:101A300034D082E0D8CF08958091460382FB882776
:101A400080F991E08927E5CF089581E0E2CF0895FC
:101A500080E0DFCF08956FEF7FEF80E090E00C949F
:101A6000132C089580E090E00E94E52B863E9E4F67
:101A700019F40C94211F089580E0089582E090E00D
:101A80000C94DD2B089583E090E00C94DD2B0895F9
:101A900084E090E00C94E52B0895BC0184E090E094
:101AA0000C94132C0895AB01BC018FE090E00C94D2
:101AB0000B2C0895AB01BC0183E190E00C940B2C3E
:101AC000089560E070E0CB01F5CF089560E070E02C
:101AD000CB01E9DFF6CF0895A8E0B0E0E2E7FDE052
:101AE0000C94802B66EE7EEF80E090E00E94132C39
:101AF00060E082E090E00E94F92B81E08093EF01AA
:101B000061E083E090E00E94F92B60E074E184E002
:101B100090E00E94132C60E086E090E00E94F92B98
:101B20006FEF87E090E00E94F92B40E050E0BA01AF
:101B300088E090E00E940B2C60E084E290E00E943C
:101B4000F92B60E087E190E00E94F92B60E08CE0E7
:101B500090E00E94F92B60E08DE090E00E94F92B6C
:101B600019821A821B821C821D821E821F82188685
:101B700048E050E068E170E0CE0101960E94EA2B57
:101B800040E050E0BA0180E290E00E940B2C80E03F
:101B90000E943A1F0E94781F99DF2896E2E00C9479
:101BA0009C2B9ACF0895682F8EE090E00C94F92B2F
:101BB0000895A6E0B0E0EFEDFDE00C947E2B0E94CE
:101BC0003A228C0180914A0290914B028017910732
:101BD00079F019821A820E943A22BC0149815A8105
:101BE00080E090E00E94990410934B0200934A0217
:101BF0002696E4E00C949A2BF8D260935A027093E4
:101C00005B0280935C0290935D0260935602709336
:101C100057028093580290935902089508950895A9
:101C2000FDCF08950895FECF089581E0089587E2DD
:101C300091E161D77DD7F3DFF3CF08950CC5089507
:101C400008950895FDDFFDCF08951AD30C94720412
:101C500008950E94312294D20E94831F01D53DD461
:101C6000F4DF0E94C51809D5DECF0895F4D48111A0
:101C70000C94B41E0895A6E0B0E0E1E4FEE00C94FC
:101C8000772BD3DF811108C094DFF0DF0E9481043D
:101C90002696EBE00C94932B41D48CE4A82E82E0A2
:101CA000B82E750110E0F70101917F01812F17D344
:101CB0001F5F1A3009F43FC00817A9F380915E0234
:101CC00081FD13D3BBDFC82E00E099249394802FAD
:101CD00006D3182FF50191915F01891739F1D82E9C
:101CE000D926F12CEE24E3948D2D8E218823B1F09A
:101CF000CC20A1F0F9820A830E943A229C838B8334
:101D00009D8291E0812F8E21811101C090E0498157
:101D10005A816B817C818D810E949904F394EE0C31
:101D2000F6E0FF12E1CFF501319710830F5F0A3023
:101D300071F662DFAACF0813C1CFA6CF1F93CF934E
:101D4000DF932BD1EC01811522E5920708F050C0FA
:101D5000811540E5940708F0D9C0803E9105F8F45C
:101D60008D3C910508F0ABC0883A910580F4853A26
:101D7000910508F096C08130910521F00497813AD1
:101D8000910550F4CE01DF91CF911F910895885AAB
:101D900091094B9708F488C0C0E0D0E0F3CF8115DB
:101DA00050E49507E8F4C11580E2D80708F0C6C0F2
:101DB000C83ED10538F3CE019A9581159F4160F751
:101DC0008D2F8FD1182FCE019927E7D0212F30E00A
:101DD000322F2227E901CC27DF71C82BD92BD2CF94
:101DE0009927DBD0CC27DF70C82BD92BD06ACACF7C
:101DF000803842E59407C8F5803652E5950708F02B
:101E000067C0C03482E5D807B0F08C2F86958695E0
:101E1000877020E2829FC0011124C37021E030E06E
:101E2000A90102C0440F551FCA95E2F7EA01C82B69
:101E3000D92BDC68A7CFC03252E5D50708F041C0E6
:101E40008C2F8695869520E2829FC0011124C37055
:101E500021E030E0A90102C0440F551FCA95E2F706
:101E6000EA01C82BD92BDD688DCF803C52E5950760
:101E700060F48F71C03AD24508F03FC090E0982FCF
:101E80008827EC01C46FD06A7DCF805C9245809733
:101E900008F082CFDC2FCC27CC27DF71C06FD06A4F
:101EA00071CFA497D0646ECFC85AD0E0CC0FDD1F9D
:101EB000CD58DE4F0990D881C02DD46463CFD06552
:101EC00061CFCF71D0E0DC2FCC27C16FD06A5ACF61
:101ED00086958695877020E2829FC0011124C37089
:101EE00021E030E0A90102C0440F551FCA95E2F776
:101EF000EA01C82BD92BDA6845CFF3D0C82FD0E040
:101F0000DC2FCC27CC27DF71D0623CCF8F71E9D09A
:101F100065E0D695C7956A95E1F7CF70D0E0DC2FE4
:101F2000CC27282F30E084FF05C054E0220F331F58
:101F30005A95E1F7C22BD32BD06924CF8D2F8F7107
:101F4000D0D0182FCE01992728D0212F30E0322F62
:101F5000222722273F71282B392BE901D5CF462F85
:101F6000672F2091220330912303232B81F4703FAC
:101F700039F4403F61F480915D0390915E030895D0
:101F80007A3028F4463018F40C944A1A089580E008
:101F900090E00895E4DFD2CE0895803E9105D1F11E
:101FA000C8F48133910509F47FC048F48932910562
:101FB00009F46FC08A32910509F47DC00895893310
:101FC0009105E1F082389105C9F08533910509F456
:101FD0005BC00895843E9105D1F148F4823E91059D
:101FE00031F1833E910541F181EE90E00895863E06
:101FF0009105C1F1873E9105E1F1089520914503D6
:102000002370211165C02091460323FF14C089E28B
:1020100090E008952091450320FD43C03091460390
:1020200030FF09C024FF4EC080E090E00895209169
:10203000450322FDF7CF08952091450322FD45C0B9
:102040003091460330FD44C024FFF5CFEDCF209101
:10205000460321FFF0CF8091450384FDE5CF87EE55
:1020600090E008952091450323FFE5CF24FDDCCFC8
:10207000F6CF2091450323FD2EC03091460331FF5A
:10208000E3CF84EE90E008952091450325FFD3CF60
:10209000BECF2091450325FD21C02091460323FF9B
:1020A000CACF89E390E008952091450326FFC3CF6E
:1020B0008AE290E008952091450326FFBCCF81E39A
:1020C00090E0089583EE90E0089582EE90E0089508
:1020D00080EE90E0089586EE90E0089585E390E02C
:1020E000AACF9091450392FF10C041E0282F2471A0
:1020F000243009F040E031E0282F2871283009F021
:1021000030E0431711F02CE0822793FF10C041E02C
:10211000282F2471243109F040E031E0282F287164
:10212000283109F030E0431711F02CE0822730917C
:10213000460330FF10C051E0282F2171213009F0F3
:1021400050E041E0282F2871283009F040E0541772
:1021500011F029E0822731FF10C041E0282F2171C2
:10216000213109F040E031E0282F2871283109F0B1
:1021700030E0431711F029E0822794FD877E08950F
:1021800010924103109242031092430310924403B1
:102190000895CF92DF92EF92FF92CF93DF9300D01A
:1021A00000D0CDB7DEB76B017C0155D2811112C0D2
:1021B0000E94462269837A838B839C83C61AD70A3E
:1021C000E80AF90AC0924103D0924203E092430325
:1021D000F09244030F900F900F900F90DF91CF91EA
:1021E000FF90EF90DF90CF900895A4E0B0E0EBEF88
:1021F000F0E10C94802B2FD2882371F00E944622AC
:1022000069837A838B839C8369817A818B819C81AA
:102210002496E2E00C949C2B0E94462269837A83E8
:102220008B839C838091410390914203A09143034F
:10223000B091440329813A814B815C81280F391F79
:102240004A1F5B1F29833A834B835C83DDCF80E089
:10225000089501CC089562D12FEF86E791E02150D7
:1022600080409040E1F700C0000058D180E037D0B6
:1022700080FF03C0EEDF0C94B6220895ECCF0895E2
:10228000F1DB811101C08DDCF9DB80935E0200DCA3
:102290009093460380934503F1DFF5DB0E94F0073E
:1022A0008091EE010C94030808950895FECF0895DF
:1022B0000895FECF0895E82FF0E0EE5AFC4F80819C
:1022C00090E021E030E002C0220F331F6A95E2F770
:1022D0002823392381E0232B09F480E00895E82F97
:1022E000F0E0EE5AFC4F80810895089580EA8A95C7
:1022F000F1F7089500C00895F9CF08950895FECF2D
:102300000895A5E0B0E0E7E8F1E10C947B2BA3D1C0
:10231000182F60915C03882309F443C01A82198244
:10232000FE01339683E0DF011D928A95E9F7862F3F
:1023300090E032977F01BF018E5A9C4FAAD1DE2CCC
:102340000F2D8823B1F08091470390E045E050E0E5
:10235000B7018E5A9C4F0E94B02B21E020935F0260
:10236000892B91F410E0A5DF812F2596E7E00C94EE
:10237000972B80915F028823A9F385E0D7011D92F6
:102380008A95E9F710925F02A0914703B0E0AE5A38
:10239000BC4F85E0ED2DF02F01900D928A95E1F76D
:1023A000E2CF70E06E5A7C4F8091470390E08E5AE6
:1023B0009C4FF6D1A4DFD8CFF894E82FE295EF70C8
:1023C000F0E041A18F7021E030E0B90102C0660F5A
:1023D000771F8A95E2F7CB01962F9095942391A3CE
:1023E00092A1892B82A3789408950F931F93CF9382
:1023F000DF93CFEAD1E089918F3F09F0DDDF81E003
:10240000C43BD807C1F7C9EAD1E00FEA11E08991CE
:102410008F3F09F0D1DF0C171D07C9F7DF91CF916E
:102420001F910F910895A0E0B0E0E9E1F2E10C9472
:102430007A2BEC01D62E062F10E0C80181559E4F55
:102440007C01FC0180818F3F09F442C0F894E82FA1
:10245000E295EF70F0E091A18F7021E030E001C0D3
:10246000220F8A95EAF7892F822B81A382A12095DA
:10247000282322A378943EDFE9EAF1E091E0C12C21
:1024800081918F3F81F0A82FA295AF70A05EB0E040
:102490002C9130E08F7002C0359527958A95E2F730
:1024A0002170892F211180E0C82A990F81E0EF3A2D
:1024B000F80731F7F70180818F3F09F07DDF61E098
:1024C000C11001C060E08D2D17DFC00FD11FC88281
:1024D000CDB7DEB7E8E00C94962B80910201809195
:1024E000020190E0811101C095E090935C0385E0CA
:1024F000891B8093470379DF8AE0E2E5F3E0DF019F
:10250000982F1D929A95E9F7E8E4F3E0DF011D9218
:102510008A95E9F785E040D0C9CE0895AAE0B0E0F9
:10252000E4E9F2E10C947D2B1A821982FE013396C4
:1025300088E0DF011D928A95E9F7F12C8E010F5F8B
:102540001F4F6F2DC8016FDFF394B5E0FB12F9CF79
:102550004AE050E0B80188E493E00E94B02B21E00B
:10256000892B89F420E060915C0370E06E5A7C4F07
:1025700045E088E493E011D0182FC3DE812B2A9622
:10258000E5E00C94992B8AE0F801A8E4B3E001900F
:102590000D928A95E1F7E7CF0895A0E0B0E0E3ED72
:1025A000F2E10C947A2BD82EE92EF62ED72F042F99
:1025B000C22F222379F081E0809362020E943A22A6
:1025C000909361028093600280E0CDB7DEB7E8E0CF
:1025D0000C94962BC0906202CC20B1F380916002E3
:1025E000909161020E946322059770F310E0A801A8
:1025F0006D2D7E2D8F2D9D2F0E94B02B892B41F0AC
:10260000A8016D2D7E2D8F2D9D2F0E94BD2BCC2DD1
:10261000109262028C2FD9CF0F931F93CF9308ECA7
:1026200010E00E945D2BC82F81110DC08FE39CE943
:102630000197F1F700C000000150110901151105C3
:1026400081F70E94592B8C2FCF911F910F910895E4
:10265000809166020895809165020895FCCF0895E7
:10266000DBDF80936502FADF80936602F1DF8093FF
:102670000201F1DF811142C00895EDDF811101C037
:1026800040C0089581E0909167029A3008F080E0A0
:1026900008950F931F93CF93DF93EC01162F072F0D
:1026A000809167028A3088F4612F702FCE0176D036
:1026B000811121C0809167028F3FB1F40E943A22BC
:1026C000909364028093630209C0809163029091A9
:1026D00064020E946322843F914030F780E0DF91E2
:1026E000CF911F910F9108958F5F809367028A3079
:1026F00028F781E0F4CF10926702FBCF0C942C23D3
:1027000008950C942F230895A0E0B0E0EAE8F3E1E7
:102710000C947A2BFA0169017801C82F880FDD0B20
:102720003097B1F0DE0193E0AA0FBB1F9A95E1F755
:10273000AD5FBE4F11968D919C91129788599D4F18
:102740004C9150E0E417F50708F4AF010E94BD2B4F
:10275000CE010E941224182F8823D1F0E114F10435
:10276000B9F083E0CC0FDD1F8A95E1F7FE01ED5F44
:10277000FE4F438150E0E416F50608F4A701CD5F53
:10278000DE4F6C817D8168597D4FC6010E94BD2B53
:10279000812FCDB7DEB7E8E00C94962B39C10895B0
:1027A00058C10895A8E0B0E0E8EDF3E10C947E2B69
:1027B0008091880290918902A0918A02B0918B0247
:1027C000BC01CD010E94722211E0643671058105C1
:1027D000910510F10ADDDC01CB010296A11DB11DAE
:1027E00089839A83AB83BC8300E010E020E030E073
:1027F00044E050E0BE016F5F7F4F83E085DF182F1C
:10280000882351F00E9446226093880270938902C7
:1028100080938A0290938B02812F2896E4E00C9497
:102820009A2BA6E0B0E0E7E1F4E10C947E2B8E83D6
:102830009D836091B4017091B5016A5F7F4F45E05F
:1028400050E00E94B02B8C0180918402909185020F
:10285000A0918602B0918702BC01CD010E94722234
:10286000643671058105910518F401151105B1F063
:1028700000E010E020E030E045E050E06E817D8136
:1028800082E042DF882359F00E944622609384024E
:1028900070938502809386029093870281E026964A
:1028A000E4E00C949A2BAAE0B0E0E9E5F4E10C94A2
:1028B000782B7B01A090B401B090B50101E010E04D
:1028C0009E012A5F3F4F40E050E060E070E080E012
:1028D0001BDF182F882309F44AC065018FEFC81A3F
:1028E000D80A8091800290918102A0918202B091D9
:1028F0008302BC01CD010E9472226F837887898791
:102900009A87643671058105910550F105E010E064
:102910009E012F5F3F4F40E050E060E070E081E0BB
:10292000F3DE182F65E070E0C60130D49E81981365
:1029300029C0112339F10E944622609380027093CE
:102940008102809382029093830285E0FE0131969A
:10295000ABE7B2E001900D928A95E1F781E013C0F8
:1029600065E070E0C60112D49E818913CFCF85E067
:10297000F5013196DE01119601900D928A95E1F7ED
:102980001111E3CF80E095E0EBE7F2E0D701019091
:102990000D929A95E1F72A96EAE00C94942BA0E028
:1029A000B0E0E5EDF4E10C94782BF82EE92EB62E8C
:1029B000A72E8A0167DECC24C394D12C882319F07A
:1029C0008AE0C82ED12CC1E0D0E06B2D7A2D8F2D5E
:1029D0009E2DF8010995811116C02196CC16DD06B1
:1029E00094F0CC9FC001CD9F900D900D112420E05C
:1029F00030E045E34A95F1F700002F5F3F4F28177D
:102A00003907B9F7E2CFCDB7DEB7EAE00C94942BE3
:102A10000F931F93CF93DF93D82FC92F8B0143E5DB
:102A200054E1BDDF811106C080E0DF91CF911F919D
:102A30000F91089541E154E1B8018D2F9C2FAFDF34
:102A4000882391F342ED53E1B8018D2F9C2FA7DF2E
:102A5000ECCF0F931F93CF93DF938C01FB01C091B9
:102A6000B401D091B501CE01019625E0DC010190C1
:102A70000D922A95E1F765E070E088D38883FE0126
:102A8000369685E0D80101900D928A95E1F76B8525
:102A90007C858D859E85009177021091780220912A
:102AA000790230917A02601771078207930749F023
:102AB00060937702709378028093790290937A0200
:102AC00068DBDF91CF911F910F9108950E94DA2565
:102AD000C0D80C94E42508950E94E825CCD80C9425
:102AE000FE2508950E94D3210E94C125A0D8EEDFC3
:102AF000F3DFA8D8FDCF9093CF018093CE01089546
:102B0000ECE8F2E080E090E06AE378E149EC57E13C
:102B100022E737E1778366835187408733872287AF
:102B200097878687019670968830910599F7089562
:102B3000E7CF0895AAE0B0E0E0EAF5E10C94782B45
:102B40008C01603239F5DC011196EC911197EE3071
:102B500008F5F0E0E05DF34D0C94632B88E0E1E3D1
:102B6000F1E0DE01119601900D928A95E1F7F801EE
:102B700031968FE1DF011D928A95E9F786E0F80131
:102B8000808388E0FE013196D801149601900D9261
:102B90008A95E1F72A96EAE00C94942B8CE78C93C3
:102BA00082E011968C93119712961C9212971396AD
:102BB0001C92F0CFFC0182819381092E000CAA0B9C
:102BC000BB0B55E0880F991FAA1FBB1F5A95D1F761
:102BD000AC01BD01405E5F4F6F4F7F4F803EFFEF06
:102BE0009F07AF07BF07B0F68C3722E09207A10519
:102BF000B10580F64D3732E053076105710520F0CD
:102C00004CE752E060E070E0481B590BBC016C5D82
:102C10007E4FC8010E94A72BBDCF4FE150E06FEF60
:102C200070E001960E94C62B80912403D8018C93FA
:102C30008091220311968C93119712961C921297F1
:102C400013961C92139785E014968C9314971596FF
:102C50001C92159783E016968C93169717961C92E4
:102C6000179788E018968C93189719961C9292CF14
:102C700081E090E0909323038093220382E390E02D
:102C800090932103809320030E943A2290931F0384
:102C900080931E037FCF8091220390912303892B81
:102CA00009F441C026EBC22E21E0D22E3AEBA32E2E
:102CB00031E0B32EEE24E394F12CF60161916F0123
:102CC000D5018D915D01F7DA90E0E822F922BAEBA7
:102CD000CB16B1E0DB0689F780911E0390911F03AC
:102CE0000E9463228536910548F1E114F10431F127
:102CF0000E943A2290931F0380931E038091200329
:102D00009091210301979093210380932003892BB5
:102D100051F4109223031092220381E090E09093EB
:102D200025038093240380912403F80180838091FC
:102D3000220381838091200382832CCF82E390E061
:102D40009093210380932003EECF109225031092DD
:102D5000240320CF40E250E06FEF70E00E94C62BCA
:102D600019CF12968C911297813079F0823019F137
:102D7000811110CFF80131968FE1DF011D928A9504
:102D8000E9F788E0F801808305CF13968C919AE0EB
:102D9000D92EFE0131967F01DF01ED2D1D92EA95BE
:102DA000E9F7B7015AD2D8018D93F70101900D923E
:102DB000DA94E1F7EFCE13968C919AE0F80134960D
:102DC000AE014F5F5F4FDA0101900D929A95E1F7E6
:102DD00029813A81BA012115BCE73B0741F44091B2
:102DE000240350912503452B11F420E030E03A8371
:102DF00029832B813C812115ECE73E0741F440916A
:102E0000240350912503452B11F420E030E03C834E
:102E10002B832D813E812115FCE73F0741F4409132
:102E2000240350912503452B11F420E030E03E832C
:102E30002D832F81388521159CE7390741F4409176
:102E4000240350912503452B11F420E030E038870E
:102E50002F8318D2D8018C9353DE9CCEA6E0B0E02D
:102E6000E4E3F7E10C94802B90935E0380935D0381
:102E7000811520E2920730F40E943C032696E2E09E
:102E80000C949C2B80EF89838A830E943A22816074
:102E9000BC0149815A8181E091E00E949904EECF02
:102EA000A6E0B0E0E6E5F7E10C94802B90935E039A
:102EB00080935D03811520E2920730F40E94500355
:102EC0002696E2E00C949C2B80EF89838A830E94F3
:102ED0003A228160BC0149815A8181E090E00E94E0
:102EE0009904EECF0F931F93CF93DF938C01EB01E7
:102EF0006CE073E08C2FB1D1892B71F4DD27CA5EB1
:102F0000DC4F8881F801128218828330E9F048F49E
:102F1000813059F0823081F0DF91CF911F910F9174
:102F200008958430B1F08530B9F780910C03909109
:102F30000D03009789F306C080910E0390910F0353
:102F4000009799F3ADDFE8CF8091100390911103C2
:102F5000F7CF8091120390911303009799F7209176
:102F60000C0330910D0380910E0390910F032115F6
:102F70003105F9F2009731F7C901E4CFCF93DF9320
:102F8000D82FC92F6BDF8D2F9C2F8ADFDF91CF9138
:102F900008950F931F93CF93DF938C01EB016CE0A7
:102FA00073E08C2F5AD1892B09F057C0FE01FF27FF
:102FB000D80112968C911297EA5EFC4F8130A9F4E9
:102FC00015968C9182FD4EC080FF4CC082E08083BC
:102FD00080910E0390910F030097B9F480910C0338
:102FE00090910D030097C9F110C08230A1F515969C
:102FF0008C9182FD26C080FD0AC083E08083809191
:103000001003909111030097F1F028DF26C084E0AF
:10301000808380911203909113030097B1F7809100
:103020000C0390910D03009701F1A8DF80910E032E
:1030300090910F03009749F780910C0390910D0335
:10304000E4CF85E0808380910C0390910D0300977D
:1030500021F094DFF1CF86E08083DF91CF911F9143
:103060000F91089581E08083B9CF80910E039091F4
:103070000F03B8CF0F931F93CF93DF938C01862F4D
:103080006CE073E0EAD0892B99F4C0910C03D091E5
:103090000D03209769F0F8018281833039F4CE0165
:1030A0006DDFCE016BDFCE0169DF02C08430D8F75F
:1030B000DF91CF911F910F910895AAE0B0E0E3E670
:1030C000F8E10C94802B9C0197558F3F910539F0C6
:1030D00030F088EC90E02A96E2E00C949C2BBE0144
:1030E0006F5F7F4F822FB9D0892B99F789859A8599
:1030F000F2CFCF93DF93EC01FB01858181112FC0CB
:10310000D755CF3FD10509F050F56CE073E08C2F17
:10311000A4D0892B21F5CE0124E0880F991F2A9590
:10312000E1F7FC01E457FD4F22812130E1F42091C9
:103130000C0330910D03232B91F020910E0330915D
:103140000F03232B61F02091100330911103409164
:10315000120350911303242B352B232B61F081E0B4
:10316000DF91CF9108952230D1F720911003309153
:103170001103232BA1F3FC01EF56FD4F20812E7F7D
:10318000208384579D4F48D5EACF0895FC01680FEE
:10319000791F8FEF91E3E617F70709F4089521915E
:1031A000822728E030E087FF08C0880F8927215058
:1031B000310921153105B9F7EECF880FF8CF84E03A
:1031C000089550E0440F551F9CE0699F400D511D2C
:1031D000112498E7899F400D511D1124CA01899639
:1031E00008950F931F93CF93DF938430C0F46A3018
:1031F000B0F44630A0F4E5DF8C010E94DD2BC82F2F
:10320000D0E0DC2FCC27C80101960E94DD2B9E0167
:10321000282BC901DF91CF911F910F91089580E074
:1032200090E0F8CF0F931F93CF93DF93122F032FCC
:10323000843070F46A3060F4463050F4C2DFEC0140
:10324000602F0E94F92B612FCE0101960E94F92B6D
:10325000DF91CF911F910F910895282FCB01283036
:1032600070F44AE0249F90011124B901675F7D4FFB
:103270004AE050E00E94CD2B80E090E008958FEF6F
:103280009FEF0895282FCB01283070F44AE0249F47
:1032900090011124B901675F7D4F4AE050E00E9420
:1032A000172C80E090E008958FEF9FEF0895CF9264
:1032B000DF92FF920F931F93CF93DF93CDB7DEB7CB
:1032C0002A970FB6F894DEBF0FBECDBFC09024037F
:1032D000D090250381E090E0909325038093240310
:1032E00000E010E011C04F2D612F802F0E94F202EC
:1032F0009C014F2D612F802F95DFF39486E0F8120B
:10330000F2CF1F5F1A3011F0F12CEDCF0F5F0430B8
:1033100041F71A8219821C821B821E821D82188626
:103320001F8288EC90E09A87898710E0BE016F5F6A
:103330007F4F812FA7DF1F5F1830C1F7D092250381
:10334000C09224032A960FB6F894DEBF0FBECDBFFD
:10335000DF91CF911F910F91FF90DF90CF90089553
:10336000EF92FF920F931F93CF93DF938C01EA01AB
:103370007A01E60EF71ECE15DF0529F4CDB7DEB7CC
:10338000E6E00C94982B003E81E0180740F4C80159
:1033900089960E94DD2B89930F5F1F4FECCF80E051
:1033A000FACFA0E0B0E0E7EDF9E10C94742BEC016A
:1033B0007B018A01803E914098F480EE91E08C1B65
:1033C0009D0B8617970760F0809124039091250349
:1033D000892B59F0E00EF11E0E151F0509F04CC0A7
:1033E000CDB7DEB7EEE00C94902B3E0139E2630ED0
:1033F000711C6E0181E0C822DD24C114D10479F072
:10340000CE0188960E94DD2BF801908189279827AC
:10341000892781159C4719F48FEFF8018083CE012D
:103420008E0D9F1D570180FF13C0F1E0AF1AB10848
:1034300048018A0C9B1CC3018E0D9F1D0E94DD2B31
:10344000F401908181159C4719F48FEFF40180837A
:10345000F801EC0DFD1D2FEFCA14DB0408F0BACF04
:103460009081818181159C4711F42083218382E022
:10347000C80ED11C3296F0CFC03EE1E0DE0730F43A
:10348000F8016081CE0189960E94F92B0F5F1F4FD2
:103490002196A2CF843030F46A3020F4463010F404
:1034A000A0CE089580E090E0089580E1089587EA35
:1034B00091E00895EF92FF920F931F93CF93DF93C4
:1034C0008C01EA017A01E60EF71ECE15DF0529F41C
:1034D000CDB7DEB7E6E00C94982B073A81E01807E9
:1034E00048F4C801875A9D4F0E94DD2B89930F5FD6
:1034F0001F4FEBCF80E0FACFEF92FF920F931F9315
:10350000CF93DF938C01EA017A01E60EF71ECE1508
:10351000DF0529F4CDB7DEB7E6E00C94982B073A27
:1035200081E0180730F46881C801875A9D4F0E94D6
:10353000F92B21960F5F1F4FEACFCF93DF93C9E599
:10354000D2E060E0CE010E94F92B2196C11584E003
:10355000D807B9F7DF91CF910895A4E0B0E0E3EB8D
:10356000FAE10C947A2BF82E2FE0281708F4A9C062
:103570008FEF93E00E94DD2B8111A3C009E512E0DB
:10358000F1103BC08091390190913A01A0913B012B
:10359000B0913C0189839A83AB83BC8378018FEF20
:1035A000E81AF80AC8010E94DD2B89831A82882351
:1035B00009F487C0813009F07EC0680192E0C90E2D
:1035C000D11CC7010E94DD2BE82E8A83882309F4D1
:1035D00078C0C6010E94DD2BF82E8FEF8E0D833050
:1035E000D0F4FB82FF2019F0CE0101963FD2680192
:1035F00053E0C50ED11C8601D1CF011544E014075C
:1036000009F45FC0C8010E94DD2B0F5F1F4F8111BD
:10361000F4CFFA94B5CF8BEF8E0D833028F5680187
:1036200023E0C20ED11CFB82FF2029F3C6010E94B9
:10363000DD2B8C83882379F08B819C8181304FEF47
:10364000940710F0982F882756E0E51649F027E0F8
:10365000E21641F093DC680144E0C40ED11CCBCFEC
:10366000FDDBF9CF1DDCF7CF54E0E512C4CF6801D4
:1036700084E0C80ED11CC80103960E94DD2BFF20F8
:1036800001F18823F1F08150990B4FEF489F900191
:10369000499F300D11244F2D4150550B240F351FDC
:1036A0002150310908F4A7CF8FE99FE00197F1F786
:1036B00000C00000F5CF60E0CE01019671D1670136
:1036C0009ACF2496E8E00C94962BCF93DF93EB01EE
:1036D00086319C4709F50E940B0C9D81992399F036
:1036E0008A7A91E0811101C090E0909326038823AB
:1036F00041F085E30FD60E94CA0C80E0DF91CF91A4
:10370000089589E2F7CF80912603882319F085E395
:1037100008D6F1CF89E2FCCF81E0F0CFCF93DF93E1
:10372000EC01FB018581882309F4D2C09E0130574A
:103730002332310508F0B2C00E94480D9093460331
:1037400080934503FE01E150F047E232F10520F499
:10375000E25CF34D0C94632B809145038160809370
:10376000450393C0809146038860809346038DC0D3
:10377000809145038260F3CF809145038460EFCF51
:10378000809145038860EBCF809146038160EDCF47
:10379000809146038260E9CF809145038061DFCF4D
:1037A000809145038062DBCF809145038064D7CF51
:1037B0000E94A907809145038068D1CF809145037D
:1037C0008C60CDCF809146038360CFCF809145033D
:1037D0008E7FC5CF80914603877FC7CF80914503F9
:1037E0008D7FBDCF809145038B7FB9CF80914503FD
:1037F000877FB5CF809146038E7FB7CF80914603F8
:103800008D7FB3CF809145038F7EA9CF80914503F3
:103810008F7DA5CF809145038F7BA1CF0E94A90703
:10382000809145038F779BCF80914503837F97CF0E
:10383000809146038C7F99CF8091450382FB992725
:1038400090F921E0922790FB82F990FB83F987CFD2
:1038500080914603982F909591708E7F892B90FBD5
:1038600081F983CF90914503892F8F7B96FF8064E8
:1038700076CF0E94A90790914503892F97FB87F97E
:1038800080586DCF81E00E94D30D809145039091C7
:1038900046030E944D0D0E94A90780E0DF91CF9161
:1038A000089580E0F0CF90914503892F8F7E94FF9B
:1038B000806155CF90914503892F8E7F90FF816065
:1038C0004ECF90914603892F877F93FF88604DCF1D
:1038D00081E0E4CFFF920F931F93CF93DF93E82F04
:1038E000F0E0E056FC4FF490282F2695269526957B
:1038F00030E0F901E05CFB4F94918770F901E05DE5
:10390000FB4F049110E0082E02C0159507950A940C
:10391000E2F701701127F901E05EFB4FC491D0E09E
:10392000082E02C0D595C7950A94E2F7C170DD272D
:10393000E92FF0E002C0F595E7958A95E2F7E0FD02
:1039400010C001151105C1F48F2D0E945605CD2B15
:1039500019F08CE20E945605CDB7DEB7E5E00C9475
:10396000992B81EE0E94DC040115110579F48F2D4D
:103970000E94560581EE07C086EE0E94DC048F2D62
:103980000E94560586EE0E941805E1CF86EE0E9441
:10399000DC048F2D0E94560586EE0E941805EACFA2
:1039A000EF92FF921F93CF93DF93EC01162F888144
:1039B000882309F455C0813009F050C089818130D5
:1039C000A1F47E0122E0E20EF11C8A810E945605DC
:1039D000E7012196812F882351F3EFE9FFE031972A
:1039E000F1F700C000008150F6CF823041F47E0133
:1039F00082E0E80EF11C8A810E94DC04E9CF83306A
:103A000041F47E01E2E0EE0EF11C8A810E9418056D
:103A1000DFCF843011F02196DCCF2A81229680E01E
:103A200090E06AE0AE014F5F5F4F2053330B2A30C6
:103A3000310548F0019768F2EFE9FFE03197F1F7BF
:103A400000C00000F7CF689FF001699FF00D1124BE
:103A5000C9018E0F9F1F2981EA01E4CF3BDFB9CF57
:103A6000DF91CF911F91FF90EF90089560E098CF84
:103A70000895A0E0B0E0EFE3FDE10C94782B7C0129
:103A80005B01C42FD22FFC0185818823C1F04093B4
:103A90002903F0D4909328038093270380E28C0FAE
:103AA000883040F4C77081E001C0880FCA95EAF7FA
:103AB0000E945E05CDB7DEB7EAE00C94942B10911E
:103AC0002903141340C08091270390912803FBD44D
:103AD0006C01B701C501F1DAC816D906A0F5C0E23C
:103AE000CD0F1D1749F180E2810F883048F417701F
:103AF00081E0012E01C0880F0A94EAF70E94630555
:103B0000C83020F0802F0E945605D4CF91E08D2F31
:103B1000877001C0990F8A95EAF7892F0E945E0588
:103B2000802F0E945605D77081E001C0880FDA957A
:103B3000EAF70E946305BECF802F0E945605C83069
:103B400008F0B8CFF0CF80E28C0F883008F0B2CF09
:103B5000C77081E001C0880FCA95EAF7EACF0F93DA
:103B6000FC01CB01E851FC47E730F10588F5E05A4C
:103B7000F34D0C94632B06E221EE41EE6AE17CE703
:103B800078DF80E00F91089507E225EE45EE6BE1C6
:103B90007CE7F6CF06E221EE40EE68E17CE7F0CF6D
:103BA00007E225EE44EE69E17CE7EACF06E221EE8A
:103BB00042EE6CE17CE7E4CF07E225EE46EE6DE1F4
:103BC0007CE7DECF08E221E045EE6EE17CE7D8CF6E
:103BD000FB01858181111092290381E0D3CFFA0185
:103BE000309709F009950895CF93DF93EC014A854A
:103BF0005B856E857F85F3DF8B810E94280C8C812D
:103C00000E94140C0E94CA0C86E0FE0111928A9553
:103C1000E9F7DF91CF910895CF93DF93EC018D8188
:103C200081FD10C082608D838B810E94220C8C816B
:103C30000E940E0C0E94CA0C488559856E857F85AE
:103C4000CE01CDDF10922D0310922C038D8180FDCB
:103C500002C0CE01C9DFDF91CF910895CF939C01BF
:103C6000FB01C581CC23E9F080912C0390912D03B9
:103C70000097D1F082179307B9F0992744E0880F95
:103C8000991F4A95E1F7FC01EF56FD4F40814460D2
:103C9000408384579D4FFC0131832083BDDF0E9408
:103CA000300C8C2FCF910895C0E0FBCF0F931F9362
:103CB000CF93DF938C01DB0197558F3F910509F07E
:103CC000B0F5F801FF2784E0EE0FFF1F8A95E1F7BA
:103CD000EF01C457DD4F15968C91EF56FD4F908143
:103CE00080FB90F99083882341F1C4D390932B03F8
:103CF00080932A038A818F5F8A830E940B0C8B83B7
:103D00000E941F0C9B81982B9B830E94330C8C83F9
:103D10004E815F816E857F85CE0161DF8D8181FF60
:103D200002C000E010E010932D0300932C0381E00B
:103D3000DF91CF911F910F9108954C855D856E8520
:103D40007F85CE014CDF8D8181FFF1CFCE014CDF2D
:103D500080912C0390912D038017910741F71092C9
:103D60002D0310922C03E3CFA7E0B0E0EAEBFEE1D5
:103D70000C947E2B80912C0390912D03892B49F17B
:103D800080912A0390912B039ED38C01BE016F5F1B
:103D90007F4F87E0FB0111928A95E9F780912C0310
:103DA00090912D038AD98017910798F480912C0364
:103DB00090912D03992724E0880F991F2A95E1F708
:103DC000FC01EF56FD4F208122FD03C084579D4F1B
:103DD00023DF2796E4E00C949A2BCF93DF939C018A
:103DE000FB0127378CE7380739F028373C47C9F003
:103DF00081E0DF91CF9108958581882371F018D0FB
:103E00000E9414081BD0D82F16D0C82F11D04D2FC8
:103E10006C2F0E94360980E0ECCF0AD00E941F0868
:103E2000F1CF8581882311F006D0EACF04D0F6CFF8
:103E300080912501089580912401089580912301A6
:103E4000089585E290E00E94DD2B873089F486E2B8
:103E500090E00E94DD2B8A3E59F487E290E00E94B8
:103E6000DD2B91E08B3309F090E0892F817008956C
:103E700080E0FCCF882381F067E085E290E00E943B
:103E8000F92B6AEE86E290E00E94F92B6BE387E261
:103E900090E00C94F92B08956FEF85E290E00E947A
:103EA000F92B6FEF86E290E00E94F92B6FEFEFCFD6
:103EB0000895A4E0B0E0EFE5FFE10C94802B88E2E8
:103EC00090E00E94DD2B282F30E040E050E0CA0156
:103ED000B9012496E2E00C949C2B0895CF93C62F51
:103EE000FCDF6C2F88E290E00E94F92BCF910895BF
:103EF00080E0C0DF60E070E0CB01F0DFD8D91DDBEF
:103F000081E0B8CF0895D4DFD4DFE7DF9ADF8111F5
:103F100001C0EECF08959C01FB018581882349F003
:103F2000A90157574038510528F4822F16DB80E04D
:103F3000089581E008952FEFFC0120830895AEE0FD
:103F4000B0E0E5EAFFE10C947C2B8D839E83162F75
:103F5000AD81BE81EC918091220390912303892B46
:103F600079F0EE3F29F511968C91833018F0855049
:103F70008330F0F4612F8D819E810E949A1518C0C4
:103F8000E43150F4EE2351F0E150E33138F4F0E045
:103F9000E959F34D0C94632BEE3F61F3612F8D8152
:103FA0009E81C9DF05C0ED81FE81118289E0828397
:103FB000612F8D819E81E9D42E96E6E00C94982B9A
:103FC000AD81BE8111968C91823071F08330C1F049
:103FD000813021F75BD20E94692BED81FE816283E3
:103FE000738384839583E4CF64DF0E94692BAD8162
:103FF000BE8112966D937D938D939C931597D8CF28
:104000008091240390912503892B91F2ED80FE800D
:10401000B2E0EB0EF11C00E0802F0E946F11F7015F
:1040200081937F010F5F0A30B9F7C2CFAD81BE81A6
:1040300011968C911197823009F0B0CF12968D9124
:104040009D910D90BC91A02DBC01CD010E94692BCA
:1040500045DFAECFED81FE81438162818181C1D890
:10406000982789279827AD81BE8115969C938E93BA
:1040700014979ECFED81FE8124813581322723273D
:104080003227438162818181CDD892CF10D990CFE0
:104090008FEFAD81BE818C938BCF07DAED81FE81EE
:1040A000818386CF04DA982789279827AD81BE813E
:1040B00012969C938E9311977BCFED81FE81218187
:1040C00032819381692F70E09D3108F071CFAF018B
:1040D0004C5F5F4F922F832FEDD96ACF80912403DD
:1040E00090912503892B09F463CFAD81BE81119690
:1040F0002D913C91129713969C911397692F70E024
:104100009D3108F055CFAD014C5F5F4F922F832F4B
:10411000F3D94ECF12DA4CCF52D8C0CFAD81BE8189
:1041200011962D913C91129713969C911397692F9C
:1041300070E09D3108F03CCFAD014C5F5F4F922F96
:10414000832F0ED935CFED81FE812181328193817C
:10415000692F70E09D3108F02BCFAF014C5F5F4FAE
:10416000922F832F1ED924CF809124039091250371
:10417000892B09F41DCF8D819E8107D4FFEF21EE9D
:1041800084E0F15020408040E1F700C00000EED113
:104190000FCF909334038093330308950E942B1321
:1041A000811103C080912E030895E0913303F091B3
:1041B0003403309729F00190F081E02D099508959E
:1041C00080E00895E0913303F0913403309721F0BB
:1041D0000280F381E02D09950895A3E0B0E0E3EFBC
:1041E000F0E20C94802B9C0180913103909132037A
:1041F00082179307A1F03093320320933103E091AB
:104200003303F0913403309751F083E089833B838B
:104210002A830084F185E02DCE010196099523962D
:10422000E2E00C949C2BA3E0B0E0E9E1F1E20C9415
:10423000802B9C0180912F0390913003821793076C
:10424000A1F03093300320932F03E0913303F091DA
:104250003403309751F084E089833B832A830084C0
:10426000F185E02DCE01019609952396E2E00C94AC
:104270009C2B40910001509101019A012E5F3F4F0C
:10428000485F5F4F80E0F90190812F5F3F4F9111B0
:104290008F5F42175307B9F70895882371F0209173
:1042A000000130910101F9013296285F3F4F919151
:1042B000981729F0E217F307D1F780E0089581E01D
:1042C00008959C01FC0132968FEF90E041914617D2
:1042D00051F08F3F19F4411101C0892F9F5F963033
:1042E000A9F78F3F09F40895280F311D87FD3A95EE
:1042F000F901628308959C01FC013296285F3F4FCB
:104300008191861303C0DF0111971C92E217F30716
:10431000B9F70895682F8091000190910101D1CFE4
:104320000895682F8091000190910101E4CF0895D4
:10433000E0910001F0910101329686E0DF011D92CB
:104340008A95E9F708950895FECF08958F5F8093C9
:104350003503FACF089583E080933503F5CF0895B0
:10436000F5CF089581E080933503EECF0895FACF1D
:10437000089508950895FECF089508950895F9CFFA
:104380000895CF93FADF0E948E12F8DFC0E08C2FE1
:104390000E946F11811105C0CF5FCA30C1F7CF9164
:1043A000089581E0FCCF85B7806885BF85B78068B8
:1043B00085BF08951F921FB61F9211248F939F935C
:1043C000AF93BF9380913603811113C080915F0337
:1043D00090916003A0916103B09162034196A11D89
:1043E000B11D80935F0390936003A0936103B0932A
:1043F0006203BF91AF919F918F911F901FBE1F903D
:10440000189580916703843031F10E94590410920D
:10441000360388E190E020E40FB6F894A8958093E5
:1044200060000FBE2093600083B7817F846083BFEC
:1044300083B7816083BF7894889583B78E7F83BF6D
:104440000FB6F894A8958091600088618093600011
:10445000109260000FBE08950E94A9070C945D049D
:10446000089582E084BD93E095BD9AEF97BD809357
:104470006E0008952FB7F89480915F0390916003C8
:10448000A0916103B09162032FBF0895A4E0B0E052
:10449000ECE4F2E20C94802B8FB7F89420915F0348
:1044A00030916003409161035091620329833A8304
:1044B0004B835C838FBF69817A818B819C81249639
:1044C000E2E00C949C2B9C014FB7F89480915F0321
:1044D00090916003A0916103B09162034FBF821B72
:1044E000930B0895A4E0B0E0E8E7F2E20C947E2B91
:1044F000462F572FBC012FB7F89480915F039091FE
:104500006003A0916103B09162032FBF8C019D01F4
:10451000041B150B260B370BC901B8012496E4E0E8
:104520000C949A2B78941F921FB61F9211248F938C
:104530009F93AF93BF9380915F0390916003A0918D
:104540006103B09162030196A11DB11D80935F03C9
:1045500090936003A0936103B0936203BF91AF9106
:104560009F918F911F901FBE1F90189587E797E727
:10457000909301088093000888E19AE00FB6F894C0
:10458000A895809360000FBE90936000FFCF88E1F4
:104590009AE00FB6F894A895809360000FBE9093B0
:1045A0006000FFCF8EE14A9B03C081508111FBCF99
:1045B0004A9BFECF08955A9880E28A95F1F75A9A5D
:1045C0000895FC013BE03A95F1F798E020E080E0A7
:1045D00031E040E14A95F1F7880F4A9B02C08160C3
:1045E000232742E04A95F1F7000040E14A95F1F7B0
:1045F00091509111EECF90E19A95F1F799B132E097
:104600003A95F1F7000040E14A95F1F792FB9927BE
:1046100090F992272081920F90830895A1E0B0E055
:10462000E4E1F3E20C947C2B19828C017C01E60E10
:10463000F11C0E151F0541F481E09981911180E074
:104640002196E6E00C94982BADDFCE010196B9DF00
:10465000F80181938F01EDCF529A5A9A089552989A
:104660005A9AEA9AE9E6F0E080818F7C8083089587
:104670006150770B91E001C0990F6A95EAF7692FB5
:1046800090E021E0611108C0992399F05A9A80E2E4
:104690008A95F1F75A980895362F3823332339F045
:1046A0005A9A922730E23A95F1F76695EBCF5A98ED
:1046B000F9CF5A98ECCFFF920F931F93CF93DF93CC
:1046C000EC018C01060F111DC017D10729F4CDB7DD
:1046D000DEB7E5E00C94992BF9906DDF68E08F2D43
:1046E000C7DFF2CF1F920F920FB60F9211240F93D4
:1046F0001F932F933F934F935F936F937F938F936A
:104700009F93AF93BF93EF93FF93CF93DF930F925A
:10471000CDB7DEB7198246DFCE01019652DF082FF2
:10472000069506950695982F92959570202F2570E1
:10473000920F292F237096959695920F9827977030
:104740008981892B811158C0053008F055C080E15E
:104750008A95F1F75A9A529A82E08A95F1F700C049
:104760005A9888E0089F80011124D801AD5FBE4FA0
:104770001696ED91FC9117973097A9F06091B401CE
:104780007091B50114962D913C911597260F371F06
:1047900011968D919C911297680F791F13964C91E9
:1047A00013978C910995F801ED5FFE4F63816623A5
:1047B00049F02091B4013091B50184819581820F37
:1047C000931F79DFF8DE80E18A95F1F75A985298C5
:1047D0005A9A80E18A95F1F7F801ED5FFE4F60810A
:1047E000662349F02091B4013091B5018181928115
:1047F000820F931F13DFD6DE0F90DF91CF91FF91D1
:10480000EF91BF91AF919F918F917F916F915F9148
:104810004F913F912F911F910F910F900FBE0F90CD
:104820001F9018950F931F93CF93DF938C010597DB
:104830000CF05FC0F894529A5A9885E08A95F1F787
:104840000000C02FC695C570802F8570C80F8C2FB3
:104850008370C695C69593E0000F111F9A95E1F7F6
:10486000C80FC8018C2BEC01A6DE00C068E08C2FBD
:10487000FFDE90E19A95F1F752985A9A4A9B31C01F
:1048800087E090E04A992FC0F801ED5FFE4F638109
:10489000662359F02091B4013091B501848195814E
:1048A000820F931FBBDE882309F17CDE80E28A95AC
:1048B000F1F75A98529A90E19A95F1F7F801ED5F65
:1048C000FE4F6081662349F02091B4013091B5011B
:1048D00081819281820F931FEEDE6DDE789481E0FC
:1048E00009C000C0CBCF0197009749F4529A5A9A59
:1048F000789480E0DF91CF911F910F91089500C0CF
:10490000C1CF80913F03089508950895282FCB01CA
:10491000BA01309167033430D9F42F702093E90045
:104920002FEF3091E80035FD07C035ED3A95F1F7EE
:10493000000021502111F5CF2091E80025FF08C08B
:1049400040E050E003D28091E8008E778093E80049
:104950000895BC0143E050E084E0D8CF0895CF93A0
:10496000DF93D82FC92F48E050E0682F792F81E0DE
:10497000CDDF88E0ED2FFC2FA7E3B3E001900D928F
:104980008A95E1F7DF91CF910895792F603229F46C
:1049900040E250E0682F82E0B9CF0895809166032D
:1049A000811107C0A6D3FDD38091E200846080937B
:1049B000E2000895109266030895D4CC08956091A2
:1049C000630381E0611101C080E0C5CC089590913E
:1049D000670381E0943009F080E060916303C0CC0C
:1049E000089542E061EC81E000D342E261EC84E0B2
:1049F000FCD242E261EC82E0F8D242E260EC83E079
:104A0000F4D29091670381E0943009F080E06091E6
:104A100063039CCC089580916903893081F148F447
:104A2000823009F49DC0833009F459C0813041F0CF
:104A300008958A3009F485C08B3009F46BC008955D
:104A400080916803813A09F049C08091E800877F2E
:104A50008093E80080916C0390916D03892B59F04D
:104A600060E080E090E070E00BD28091E8008B770E
:104A70008093E800089568E087E393E0F4CF8091A5
:104A80006803813259F580916C0390916D038D7F9D
:104A9000892B21F58091E800877F8093E800809141
:104AA000E80082FF17C09091F3008091F200029716
:104AB00031F48091F100813011F0863021F4809141
:104AC000F10080933F038091E8008B778093E800AA
:104AD000C0D204C0809167038111E1CF0895809115
:104AE0006803813AD9F780916C0390916D03892B0B
:104AF000A9F78091E800877F8093E8008091E80023
:104B000080FFFCCF809130018093F1008091E8001C
:104B10008E77DCCF80916803813201F780916C033E
:104B200090916D03892BD1F68091E800877F809367
:104B3000E8008FD280916A03809330010C94A9071A
:104B4000089580916803813249F68091E800877F5B
:104B50008093E8007ED280916B0380934003089598
:104B600080916803813A09F0B9CF8091E800877F8E
:104B70008093E8008091E80080FFFCCF80914003A3
:104B8000C3CF84B7877F84BF0FB6F894A895809170
:104B90006000886180936000109260000FBE80E822
:104BA00090E00FB6F89480936100909361000FBE7F
:104BB000DECB08959ED2F5D2E2EEF0E080818460F3
:104BC000808378945DC5089586E291E0E2CA0895F5
:104BD00080916703853029F480916703853011F057
:104BE0003BCC08950EDC809165038823A9F3C9DBD3
:104BF000882391F395D00E94A907EECFA0E2B0E000
:104C0000E3E0F6E27DC580916703843081F483E0C0
:104C10008093E9008091E80082FF09C08091E8005C
:104C200085FD08C08091E8008B778093E800A0960E
:104C3000E2E082C540E050E060E270E0CE01019623
:104C4000D2D08091E8008B778093E80060E2CE01BB
:104C5000019675D9ECCF9A0140916E0350916F0384
:104C600001C00895AC01CB01D901252F3327233092
:104C7000310521F168F42130310509F447C02230B3
:104C8000310509F448C080E090E020E030E02BC01E
:104C90002132310571F122323105A9F783309105B6
:104CA00090F7FC01EE0FFF1FEF53FE4F2081318183
:104CB00082549E4FFC01808190E015C0CA01992763
:104CC0004230A1F08330910538F4E8E8F4E0892B14
:104CD00039F4EEE9F4E004C0E0E5F4E0039799F676
:104CE000849190E09F012D933C930895EEE6F4E0CB
:104CF000F7CF8330910538F6FC01EE0FFF1FE95323
:104D0000FE4F2081318189E090E0EDCF82E190E09B
:104D10002DEF34E0E8CF8BE590E022EA34E0E3CFFA
:104D200080E189BD82E189BD09B400FEFDCF80919B
:104D3000D8008F7D8093D8008091E00082608093BE
:104D4000E0008091E00081FDFCCF0895AF92BF921A
:104D5000CF92DF92FF920F931F93CF93DF936C015B
:104D6000EB018A0195D1F82E811123C0011511059F
:104D700039F0F80180819181C81BD90BC80ED91E6A
:104D8000A12CB12C2097A9F08091E80085FD21C0CD
:104D90008091E8008E778093E80001151105A1F05D
:104DA000F801808191818A0D9B1D9183808385E02C
:104DB000F82E8F2DDF91CF911F910F91FF90DF90F3
:104DC000CF90BF90AF90089563D18823E9F2F82E79
:104DD000F0CFF60181916F018093F1002197FFEFF1
:104DE000AF1ABF0ACFCFAF92BF92CF92DF92FF929E
:104DF0000F931F93CF93DF936C01EB018A0148D18E
:104E0000F82E811123C00115110539F0F8018081B8
:104E10009181C81BD90BC80ED91EA12CB12C20978B
:104E2000A9F08091E80085FD21C08091E8008B7792
:104E30008093E80001151105A1F0F80180819181AE
:104E40008A0D9B1D9183808385E0F82E8F2DDF9145
:104E5000CF911F910F91FF90DF90CF90BF90AF90B7
:104E6000089516D18823E9F2F82EF0CF8091F10051
:104E7000F60181936F012197FFEFAF1ABF0ACFCFE1
:104E8000FC019B0180916E0390916F038617970739
:104E900018F0672B61F0C90140E0009771F44111EF
:104EA0000CC08091E80082FF35C080E008958091B9
:104EB000E8008E778093E800EECF209167032223ED
:104EC000A9F12530A9F12091E80023FD2DC0209102
:104ED000E80022FDE6CF2091E80020FFDECF3091F0
:104EE000F3002091F200009719F02830310558F0B6
:104EF00041E02830310509F040E02091E8002E77AC
:104F00002093E800CACF41914093F10001972F5FB1
:104F10003F4FE9CF80916703882341F0853041F00E
:104F20008091E80083FFBDCF81E0089582E008957D
:104F300083E00895FC019B0180916E0390916F03C3
:104F40008617970718F0672B61F0C90140E00097BA
:104F500071F441110CC08091E80082FF36C080E0FE
:104F600008958091E8008E778093E800EECF20913D
:104F700067032223B1F12530B1F12091E80023FD30
:104F80002EC02091E80022FDE6CF2091E80020FF0E
:104F9000DECF3091F3002091F200009719F0283015
:104FA000310558F041E02830310509F040E020910A
:104FB000E8002E772093E800CACF44914093F10097
:104FC000319601972F5F3F4FE8CF80916703882389
:104FD00041F0853041F08091E80083FFBCCF81E053
:104FE000089582E0089583E00895982F973028F07F
:104FF0008F708093E90081E008959093E900242F59
:10500000762F50E0981731F07091EC002091ED0070
:105010005091F00021FD02C09F5FE8CF3091EB007E
:105020003E7F3093EB003091ED003D7F3093ED00FB
:105030003091EB0031603093EB007093EC002093E3
:10504000ED005093F0002091EE0027FDE5CF80E0C9
:1050500008958091680387FF13C08091E80082FF64
:1050600006C08091E8008B778093E80004C08091AF
:1050700067038111F2CF0895809167038823D9F3E4
:105080008091E80080FFF8CF8091E8008E77ECCF28
:105090002091E4003091E50095E6A9018091EC00B3
:1050A0008170882331F08091E80080FF06C080E0A5
:1050B00008952091E80022FD1BC08091670388239A
:1050C00091F0853091F08091EB0085FD10C020912A
:1050D000E4003091E5004217530701F3915091111C
:1050E000DCCF84E0089582E0089583E0089581E0B4
:1050F000089568D06FD0E0EEF0E080818160808319
:10510000E8EDF0E080818F77808319BCA7EDB0E0F7
:105110008C918E7F8C9380818F7E8083109266032A
:1051200008950F931F93CF93DF934CD053D0C8EDC6
:10513000D0E088818F7788838881806888838881A0
:105140008F7D888319BC10926703109263031092BD
:1051500065031092640300EE10E0F80180818B7FFC
:10516000808388818160888342E060E080E03DDF69
:10517000E1EEF0E080818E7F8083E2EEF0E08081DE
:1051800081608083808188608083F80180818E7F48
:105190008083888180618883DF91CF911F910F91F7
:1051A0000895E8EDF0E080818F7E8083E7EDF0E008
:1051B00080818160808384E082BF81E08093660388
:1051C000B0CF0895E8EDF0E080818E7F808310926B
:1051D000E20008951092DA001092E10008951F9203
:1051E0000F920FB60F9211242F933F934F935F931B
:1051F0006F937F938F939F93AF93BF93EF93FF939F
:105200008091E10082FF0AC08091E20082FF06C027
:105210008091E1008B7F8093E10031D28091DA00B0
:1052200080FF18C08091D80080FF14C08091DA0000
:105230008E7F8093DA008091D90080FF8FC080E15B
:1052400089BD82E189BD09B400FEFDCF81E0809374
:105250006703A4DB8091E10080FF18C08091E20029
:1052600080FF14C08091E2008E7F8093E2008091E5
:10527000E20080618093E2008091D8008062809398
:10528000D80019BC85E08093670399DB8091E10029
:1052900084FF28C08091E20084FF24C080E189BDA2
:1052A00082E189BD09B400FEFDCF8091D8008F7DD9
:1052B0008093D8008091E1008F7E8093E1008091FF
:1052C000E2008F7E8093E2008091E2008160809313
:1052D000E20080916303882309F445C084E0809351
:1052E000670375DB8091E10083FF27C08091E200B6
:1052F00083FF23C08091E100877F8093E10082E0FB
:1053000080936703109263038091E1008E7F809306
:10531000E1008091E2008E7F8093E2008091E200C4
:1053200080618093E20042E060E080E05EDE809198
:10533000F00088608093F00040DBFF91EF91BF9117
:10534000AF919F918F917F916F915F914F913F911D
:105350002F910F900FBE0F901F90189519BC1092AF
:10536000670328DB77CF8091E30087FF02C083E0EB
:10537000B6CF81E0B4CF1F920F920FB60F921124D7
:10538000FF920F931F932F933F934F935F936F93CE
:105390007F938F939F93AF93BF93CF93DF93EF93BD
:1053A000FF9309EE10E0F8018081C091EC00C795F1
:1053B000CC27C7958F70FC2EF82A1082C0EFD0E062
:1053C0008881877F888378941ED0F8011082888135
:1053D00088608883CF2DCF70C083FF91EF91DF91DC
:1053E000CF91BF91AF919F918F917F916F915F917D
:1053F0004F913F912F911F910F91FF900F900FBEF2
:105400000F901F901895AAE2B0E0E8E0FAE277C1A9
:1054100088E693E0FC0101962091F100208323E0CF
:1054200080379207B9F7F7DA8091E80083FF37C039
:1054300080916803909169039A3088F5E92FF0E034
:10544000E658F34D40C1803889F0823841F58091AB
:105450006C038F70873018F58093E9008091EB0022
:1054600085FB882780F91092E90006C080916403CB
:1054700090916503911182609091E800977F9093DD
:10548000E8008093F1001092F1008091E8008E779F
:1054900022C0811115C080916A03813001F1809191
:1054A000E80083FF0AC08091E800877F8093E800CE
:1054B0008091EB0080628093EB00AA96E3E03BC111
:1054C000823069F780916A03882381F01092E900A5
:1054D0008091E800877F8093E800BBDDE0CF81E02A
:1054E000933009F080E080936503F0CF80916C03E6
:1054F0008F702FEF280F263090F68093E9002091CF
:10550000EB0020FFE3CF933031F48091EB00806219
:105510008093EB00DBCF9091EB0090619093EB00D8
:1055200021E030E0A90102C0440F551F8A95E2F73F
:105530004093EA001092EA008091EB008860E8CF87
:105540008111ADCF10916A031F778091E3008078BD
:10555000812B8093E3008091E800877F8093E800AF
:1055600078DD8091E80080FFFCCF8091E3008068C7
:105570008093E30083E0111101C082E08093670310
:105580008ECF8058823008F08ACF80916A03909144
:105590006B038C3D53E0950791F583E08A838AE2A3
:1055A00089834FB7F894DE01139620E03EE051E284
:1055B000E32FF0E050935700849120FF03C08295C1
:1055C0008F703F5F8F708A30C0F0895C90E08D9360
:1055D0009D932F5F243161F74FBF8091E800877F53
:1055E0008093E8006AE270E0CE01019649DC809188
:1055F000E8008B778093E80052CF805DE7CF609121
:105600006C0370916D03AE014F5F5F4F24DBBC01F3
:10561000892B09F444CF8091E800877F8093E800CC
:1056200089819A8187DCE3CF803809F038CF809177
:10563000E800877F8093E800809163038093F10006
:1056400024CF81112CCF90916A03923008F027CF9C
:105650008091E800877F8093E80090936303F9DCF2
:1056600080916303882329F084E080936703B9D98C
:1056700016CF8091E30087FDF7CF81E0F6CF089544
:10568000CF9380916703882391F08091E900C091C6
:10569000EC00C795CC27C7958F70C82B1092E900F6
:1056A0008091E80083FDAFDECF70C093E900CF9119
:1056B00008951FDD1092670308958091E300881F0D
:1056C0008827881F0895EE0FFF1F0590F491E02DA5
:1056D00009946927962769277827872778270895C7
:1056E0002F923F924F925F926F927F928F929F92F2
:1056F000AF92BF92CF92DF92EF92FF920F931F93E0
:10570000CF93DF93CDB7DEB7CA1BDB0B0FB6F89490
:10571000DEBF0FBECDBF09942A88398848885F84D0
:105720006E847D848C849B84AA84B984C884DF8041
:10573000EE80FD800C811B81AA81B981CE0FD11D25
:105740000FB6F894DEBF0FBECDBFED010895FB018B
:10575000DC0102C005900D9241505040D8F70895E9
:10576000FB01DC0104C08D910190801921F44150AE
:105770005040C8F7881B990B0895FB01DC0102C05B
:1057800001900D9241505040D8F70895DC0101C0BE
:105790006D9341505040E0F70895DC01CB01FC01CE
:1057A000F999FECF06C0F2BDE1BDF89A319600B47A
:1057B0000D9241505040B8F70895F999FECF92BD2F
:1057C00081BDF89A992780B50895A8E1B0E042E03C
:1057D00050E0E5CFDC01A40FB51F4150504040F030
:1057E000CB01840F951F2E9105D041505040D8F722
:1057F0000895262FF999FECF92BD81BDF89A0197A1
:1058000000B4021639F01FBA20BD0FB6F894FA9A08
:10581000F99A0FBE08950396272FECDFEADF252FB4
:10582000E9DF242FE7CF0196272FE4DFE2CFDC0169
:10583000CB0102C02D9105D041505040D8F70895BA
:10584000262FF999FECF1FBA92BD81BD20BD0FB69C
:10585000F894FA9AF99A0FBE01960895F894FFCF3A
:10586000AE15CE15DA15CA15CA150D1638164B1613
:10587000A516AA16CA15CA15CA15B116E61B5A1CD2
:10588000EE1BB81BBC1BF21BC01BF61B021CCC1B67
:10589000531CD01B061CD41B0A1C321CD81B0E1C0C
:1058A000391CDE1B141C1C1CC41BFA1BC81BFE1B52
:1058B000E21B181C281C421C511CB21BEA1B611C59
:1058C000CA1DD01DBB1DC41DD61DDC1DE21DD31F6E
:1058D000E01F16202A203A20462048204820482051
:1058E000CE1FB4204D2052205D206E208A208C20B7
:1058F0008E20A320232A492A4F2A492A4F2AA02A48
:08590000C12A4F2A142B212BB0
:105908004002010000000100000000000000050145
:105918000000000506000000000000040B00000065
:105928000000000302018124AF2485248424A924D3
:1059380001A7A79C4CE0B8008D00000000E200E938
:1059480000EA00B500B600B700CD008301CC008A9C
:105958000192019401210223022402250226022732
:10596800022A02B300B4006F0070009F01CB019FB0
:1059780002A002E200E900EA00B500B600B700CDD7
:10598800008301CC008A01920194012102230224A0
:10599800022502260227022A02B300B4006F007013
:1059A800009F01CB019F02A002F6F7313332366621
:1059B80097C6343568020000000000050308442239
:0E59C8003263050F053105B404CD04ED040073
:00000001FF
