:10000000BBC20000D6C20000D4C200000C949E22E5
:10001000D0C20000CEC20000CCC20000CAC20000A4
:10002000C8C20000C6C200000C940F280C94DB2844
:100030000C940621BEC20000BCC20000BAC200007F
:10004000B8C20000B6C20000B4C20000B2C20000D4
:10005000B0C200000C94BE21ACC20000AAC20000D5
:10006000A8C20000A6C20000A4C20000A2C20000F4
:10007000A0C200009EC200009CC200009AC2000004
:1000800098C2000096C2000094C2000092C2000014
:1000900090C200008EC200008CC200008AC2000024
:1000A00088C2000086C2000084C2000035001E0025
:1000B0001F00200021002200290014001A0008005F
:1000C000150017002B0004001600070009000A00A5
:1000D000E1001D001B00060019000500E000E30020
:1000E000E300E2002800A8003500270026002500D4
:1000F000240023002A00130012000C0018001C002A
:10010000340033000F000E000D000B00E500380036
:100110003700360010001100E400E700E700E600B9
:100120002C00AE00FD377A585A000004E6D6B446DB
:100130000200210116000000742FE5A3E008F70279
:10014000585D003D8889C65436C3174FE4E62B87B7
:10015000DC61F128B5AEA0A33C3CF45F7424B52C5F
:100160003D20C7689B3A8E08CE16E28FDD74FFA053
:100170004F08D43D201D6B387F918A5F47ADA97928
:1001800033FF7287767C8EEB38C49768CB86D709AD
:10019000BCA6026EDFF250884B8377FF83C3DB512E
:1001A0002CCE09E6CE1F396985F97A14DCD9961F61
:1001B000535F606F4856708FE67EA6E92FB984D6EC
:1001C000B0674A2891EE6613599C531EFA27A385FF
:1001D000D806C911DCFB027EE728B0D5A822F13B86
:1001E0006B58B4D01E151D6E13D65B6A989D971080
:1001F00023C6B9CDA3355A394E99F25738E453FC8A
:100200008B25E649E1D8A57F469889EABC88DA0CB7
:10021000807A1B6E6234ADC016A49FB8289B3ADA70
:10022000101592079997B0733BC1CD79792C363769
:1002300070E31F5687EC80A74A65E6E93F6A666669
:100240006757632DAA4A4B24A6293FF7CA9326BDB8
:100250008CB02A16B6E83D99CE8E69D14089689F48
:10026000E489E4583B687F70A53A4A5D77998CEE43
:100270001880832DDFC3DEF7BE2C9EC83E6DF57F50
:1002800040A38021A2C50A80BAA685B0A1C8841166
:10029000B20611B23CDF359B7D6281D213F0A9E832
:1002A00078EE9AE66B8141A385A55ACC6066D97237
:1002B0001B550F5F105274919A0A5901D79AD805AD
:1002C000CB3B3A885E005E2B1CD959069DF07E1E02
:1002D000194DEA58E777234C6AE49E1F53A17439FD
:1002E000C4074E76122CB39CD14DD35F17FFE6DACC
:1002F0008E0A3E589F2FEEB5A9B71295F9AD604111
:10030000CD8CD0405DFDA7A925B04424851696CF9D
:100310006FB8D8028B934D0848CB35C60552F02EE6
:100320004C0A4873EFBDFA9FCBD20A09294439CC55
:10033000FFF2CE8903CD4DD7735AFBA83FA6138297
:1003400021EBCB5CE6B705C743F22B85FC02ABBBC8
:10035000E654DAB3B05F8D7E32A99DAEAC97858D41
:100360005776A4C083BF10F9F7CCAA1A4AE827959C
:100370005638E9ACBC0D3D450AF8175F870348F6CF
:10038000FB10A5C2DD024B11DDF46B6CCD44A11155
:10039000F75EE91E33CC6AB6662C4600210CD8897C
:1003A000C8696E660001F404F81100001DDEE0E685
:1003B000B1C467FB020000000004595A00000000AD
:1003C000000000002A2B28000000000000000000B0
:1003D0000000000000000029000000002C1E342056
:1003E000212224342627252E362D3738271E1F207C
:1003F0002122232425263333362E37381F040506C1
:100400000708090A0B0C0D0E0F1011121314151604
:100410001718191A1B1C1D2F3130232D3504050602
:100420000708090A0B0C0D0E0F10111213141516E4
:100430001718191A1B1C1D2F3130354C00000000F5
:1004400000000000000000000000000000000000AC
:10045000000000000000000000000000000000009C
:100460007E0F00D4FFFFFFC7000000781C0376005A
:10047000690061006C003A006600360034006300D9
:1004800032006200330063000000180363006F0055
:100490006D007000720065007300730069006F00EA
:1004A0006E000000140342007200690061006E00DB
:1004B00020004C006F0077000000040309040902CB
:1004C0004200020100A0FA0904000001030101003A
:1004D00009211101000122440007058103080001E0
:1004E000090401000203000000092111010001229A
:1004F00022000705820320000107050303200001F5
:10050000120100020000000832FC87020100010213
:1005100003010660FF0961A1010962150026FF00C1
:100520009520750881020963150026FF0095207546
:10053000089102C005010906A101050719E029E794
:100540001500250195087501810295017508810145
:100550000507190029FF150026FF0095067508817B
:10056000000508190129051500250195057501915A
:1005700002950175039101C011241FBECFEFDAE08F
:10058000DEBFCDBF11E0A0E0B1E0E8E4F7E502C0D6
:1005900005900D92A235B107D9F722E0A2E5B1E0AE
:1005A00001C01D92A03FB207E1F70E94EA140C942B
:1005B0004E2B26CD811112C06A3080F4463070F483
:1005C000E42FF0E086E0689FE00DF11D1124EE0FAE
:1005D000FF1FE455FF4F85919491089581E090E0CD
:1005E00008959C019A9581159F4118F5F901EE2710
:1005F000F270832F8170B90166277470A9014427B6
:10060000587034FF0CC08295807FEF2B09F0806218
:10061000672B09F08064452B69F080680895EF2B03
:1006200009F08260672B09F08460452B19F088601F
:10063000089580E00895CF93DF93EB01D2DFFE01B0
:100640000995DF91CF910895CF93DF93EC01805E00
:100650009109089720F068E277E0209711F46BE1A8
:1006600075E0CE01E8DF8C2F8ED1DF91CF91089518
:10067000CF93DF93EC01AAD1CE01805E9109089758
:1006800020F06DE277E0209711F460E275E0CE0192
:10069000D2DFDF91CF91089581E00895FDCF0895D5
:1006A00081E00895F9CF0895FDCF08950895FECF14
:1006B0000895A6E0B0E0EFE5F3E00C949F2A4983AB
:1006C0005A839E833091590189819A81311117C0D3
:1006D0003E81332389F0222379F0E4D4182F682F48
:1006E00089819A81BDD469817A81812F0E94270FE7
:1006F0002696E3E00C94BB2AC4D4182FF4CFD2D4AE
:1007000069817A81F3CFFC01262F4081518162817A
:10071000738184819581CDCF0895CF93DF93D82FB6
:10072000C92F61E0F0DF6D2F7C2FB8DFDF91CF9113
:100730000895CF93DF93D82FC92F60E0E4DF6D2FAA
:100740007C2FB5DFDF91CF91089581E00895FDCF33
:100750000895CF93C82F8DD38C2FF9DF2FEF84E32B
:100760009CE0215080409040E1F700C00000CF9114
:10077000089581E0EEDF0C94E221089580E0E9DF46
:100780000C94F32108950F931F93CF93DF93EC0103
:100790008B010E94A61D882321F061E0C801B3DF10
:1007A000EC01B801CE010E94031F882309F44DC05B
:1007B000B801CE010E94F117882309F446C0B801A0
:1007C000CE0172DF882309F440C0B801CE010E9437
:1007D000CE1D8823D1F1B801CE010E94271D8823A8
:1007E000A1F1B801CE010E94061B882371F1B80166
:1007F000CE010E94DD1A882341F1B801CE010E948A
:10080000651E882311F1F8018581882381F0CA359E
:10081000FCE7DF0721F170F4C130ECE7DE07E9F017
:10082000C330FCE7DF07B9F0C115DC4769F0C80148
:1008300037DF0CC0CB35ECE7DE07A1F0CC35DC4769
:10084000B1F70E94AC0CF3CF94DF80E0DF91CF9141
:100850001F910F9108950E94BB0C90DFF6CF0E946C
:10086000B50CE5CF0E94B80CE2CFCF93DF93D82F21
:10087000C92F61E048DF6D2F7C2F85DFDF91CF919D
:1008800008950E94E7201EC008951FD00C94EB200D
:100890000895089581E008950895CF93DF93D82FA8
:1008A000F9DFC82F882311F08D2FF6DF8C2FDF9111
:1008B000CF9108950895CF93C82FEBDF8C2FEDDFF4
:1008C000CF91089580E0F7CF08950E944620F3CF9E
:1008D0000895CF930E944620C82F809154018C1711
:1008E00071F0C09354010E9472216093550170937E
:1008F000560180935701909358018C2FDCDFCF91E4
:100900000895ADE0B0E0E7E8F4E00C949E2A488753
:1009100059876A877B878C879D87911131D71F8282
:1009200026E0FE013896CE010196DC0101900D9281
:100930002A95E1F72091C6028C0122FF08C0DDD67E
:10094000882311F082E0DFD7BED681116CD78D816C
:1009500081110CC029813A814B815C816D817E813E
:100960008F8131D62D96E4E00C94BA2AC801D5DEE9
:100970008111F0CFF7CFFC018481813019F480819F
:100980009181B8C30895CF93C82F882389F08CEF45
:100990008C0F813A78F48C2F0E947920882321F0E3
:1009A0008C2F0E94BD2086D78C2F0E94B62082D724
:1009B000CF91089580E28C0F8830D0F7C77081E026
:1009C00001C0880FCA95EAF7B9D6F1CF882339F06C
:1009D0009CEF980F913A20F40E94BD206BC70895B8
:1009E00090E2980F9830D8F7877091E001C0990F86
:1009F0008A95EAF7892FA8D6F1CF1F93CF93DF937B
:100A0000182FEB01C0DF209731F4812FDFDFDF915A
:100A1000CF911F9108958FE99FE00197F1F700C0F2
:100A200000002197F0CF60E070E0893311F460E5B9
:100A300070E0E3CF0895882311F080D63BC7089576
:100A4000882311F081D636C70895A0E0B0E0EBE22C
:100A5000F5E00C949A2A6C01D62FC72FFC01F58083
:100A6000068102950F705FD6E82E8823E9F0EF2CFF
:100A7000FF20D1F08C2F807F803461F080E28D0FD9
:100A8000883078F18C2F807E803221F4D23048F18A
:100A9000002339F18091C60282FF23C082E033D760
:100AA00042D691E0E82EE9269C2F92959F709830CF
:100AB00009F4BDC0C0F4923030F1925F9F70923063
:100AC00008F44BC0EE2009F465C113D680FD62C165
:100AD000F601158208D638D2C6019CD104D63FD281
:100AE00059C1E12CE1CF993009F405C19A5F9F709B
:100AF000923040F7D23F09F00BC18C2F8F71F1106B
:100B000005C122D2BDC01C2F1F70C03110F012953C
:100B1000107FFF2081F0112349F080E28D0F883093
:100B200010F0D11105C0812F09D6C4D68D2F33C046
:100B3000812F18D6FACF8D2F49DF112309F4C2CFA8
:100B400080E28D0F883010F0D11103C0812FFCD5C9
:100B500002C0812F0DD6AED6B5CF1C2F1F70C07F1F
:100B6000C03211F01295107FDD2349F0D13009F425
:100B700042C0FF2009F44BC00023C9F0D7CF8091B9
:100B8000C60282FD10C0FF2041F0112319F0812F11
:100B9000D5D590D680E0F7DE95CF80E017DF112322
:100BA00009F490CFD3CFFF20A1F0011103C0812F12
:100BB00042DF88CF013019F4812F06D683CF05306C
:100BC00009F080CF812F37DF812F14D6812FE1D517
:100BD00079CF011107C0812F33DF812F0BD6812FF1
:100BE000E4D570CF013009F06DCFA5D581238823DE
:100BF00009F468CFF0CFFF2021F0063008F062CF73
:100C0000D6CF053008F05ECF812F1ADF5BCF0023EF
:100C1000D9F3D93349F4FFEF27EE83E0F1502040B8
:100C20008040E1F700C000008D2FD0DE4BCF8C2F2D
:100C3000837081112FC0F11023C04D2F429546952E
:100C40004770440F440F8D2F8F70042E01C0880F02
:100C50000A94EAF7D071DD2341F02FE030E001C0C3
:100C6000220F4A95EAF7D22FD095C695C695C37044
:100C70008D2BC23059F0C33059F0C13029F047D123
:100C80000E94462018DE1ECF3DD1FACF45D1F8CFC5
:100C900037D1F6CFFF2031F1C0FFF2CF4D2F429573
:100CA00046954770440F440F8D2F8F70042E01C05E
:100CB000880F0A94EAF7D071DD2341F02FE030E08D
:100CC00001C0220F4A95EAF7D22FD095C695C69556
:100CD000C3708D2BC23059F0C33059F0C13029F0A8
:100CE0005DD1CECF823060F2D9CF53D1C9CF5BD1A5
:100CF000C7CF1BD1C5CFCF70FF2029F08C2F24D1B7
:100D00008D2F99DEBDCF8D2F9BDE8C2F28D1B8CFB4
:100D1000D33F68F4D03FB1F0D13F59F1FF2009F43F
:100D200054C0002309F44EC08D2F2DDEA9CFD33F30
:100D3000A1F0D43FD1F0F110F4CF011154C08C2FA9
:100D40008F71E4CFFF2039F0053008F099CF8C2F58
:100D50008F7114D195CF0530F8CFFF2021F08C2F63
:100D60008F71EAD08DCFE5D08BCF8091C60282FD06
:100D700005C08C2F8F71FF2049F2C3CEFF20C1F038
:100D8000B8D4843061F4B6D58C2F8F71E8D00E942E
:100D9000462091DDCDB7DEB7E8E00C94B62A0530E9
:100DA000B0F7CF718C2FD0D063E08C2F88D5EFCFE8
:100DB000053028F09FD564E08C2F8F71F7CF81E04C
:100DC000A2D5E5CF8C2F8F719CCE002309F4B7CF2D
:100DD000D93349F49FEFE7EEF3E09150E040F04063
:100DE000E1F700C000008D2FF1DD4ACF0F931F9374
:100DF000CF93DF93EC01688179818D8186D18C015D
:100E0000D7D07DD0B801CE0120DEDF91CF911F91E8
:100E10000F910895CF93DF93EC018C81882381F0AB
:100E2000CE0123DD81110FC07ED4882349F08D814E
:100E3000882331F08091C60282FF02C082E063D530
:100E4000DF91CF910895CE01D1DFCE0172DCF8CFD2
:100E5000882311F087D42EC50895882311F088D4F3
:100E600029C508958DD426C508950E94C420FACFBF
:100E7000089572D4FACF0895282F92959F709630D6
:100E800091F060F4925F9F70923030F481E0203FE7
:100E900079F030F4283E30F080E008959A5FF3CF87
:100EA000243FD1F7089581E0283EE0F3213FF9CFB8
:100EB0000895FC018481882329F0808191811AD1D1
:100EC000DBCF089580E00895A6E0B0E0EAE6F7E021
:100ED0000C94A02A2696E2E00C94BC2AA7E0B0E08D
:100EE000E4E7F7E00C94A02A2796E2E00C94BC2AF1
:100EF0000895FECF0895FDDF80937301089508954E
:100F0000FACF089590917301892BF5CF08959091B0
:100F100073018923F0CF0895909173018927EBCF56
:100F20000895E6CF0895FDCF0895FDDF8093720107
:100F3000089580E0FACF089591E001C0990F8A9555
:100F4000EAF7892FF2CF089521E030E001C0220FA7
:100F50008A95EAF780917201822BE7CF089521E00C
:100F600030E0A90102C0440F551F8A95E2F7CA017B
:100F70008095909172018923D8CF089521E030E0C7
:100F800001C0220F8A95EAF7809172018227CDCFA6
:100F9000089590917201892BC8CF089590917201A4
:100FA0008923C3CF0895909172018927BECF0895F8
:100FB00008959B01677091E001C0990F6A95EAF767
:100FC00063E0369527956A95E1F7B901660F771FBB
:100FD000260F371FFA01E20FF31F40E050E0682FA1
:100FE00070E08191DF0111979B01042E02C03695BC
:100FF00027950A94E2F7217021952827292328278D
:101000002C934F5F5F4F4330510559F708959C0172
:10101000A82FA77083E0369527958A95E1F7C90137
:10102000880F991F820F931FFB01E80FF91F40E003
:1010300050E080E0219130E00A2E02C036952795DD
:101040000A94E2F721703327042E01C0220F0A947C
:10105000EAF7822B4F5F5F4F4330510559F70895F0
:10106000282F862F9A3060F4263050F4622F70E0DB
:1010700026E0929F600D711D11244AE551E099CF41
:101080000895292F9A3060F4863050F490E06AE594
:1010900071E036E0239F800D911D1124B8CF089593
:1010A00080E00895A0E0B0E0E8E5F8E00C949B2A29
:1010B0007C010091720180917301082BC3E0D0E0A4
:1010C00010E0C8010C2E02C0959587950A94E2F7AE
:1010D00080FD09C02197A8F7D12C8D2DCDB7DEB7A3
:1010E000E7E00C94B72ADC2EB7018C2FCBD6019702
:1010F00089F3F3CFCF93DF93D82FC92FD3DF6D2F91
:101100007C2FC0D6DF91CF9108951F93CF93DF93AB
:10111000162FD72F90915901992339F0862F972FA9
:10112000E9DFDF91CF911F910895882369F0862F21
:10113000972FB8DFC82F682F812F9D2F91DF612F48
:101140007D2F8C2F9FD6EDCF862F972F9ADFC82F1C
:10115000F6CFE1E0F0E0DF0102C0AA0FBB1F6A9505
:10116000E2F7BD01DF0102C0AA0FBB1F4A95E2F7FB
:101170006A2B01C0EE0F2A95EAF7962F9823961353
:1011800002C08E2B0895E0958E230895242F462FBC
:10119000682F80917201DDDFC8CE08950F931F93F1
:1011A000CF93E0917401C7E0809175018E1304C064
:1011B000CF911F910F9108950E2F10E0CE9FF00157
:1011C0001124EA58FE4F208131814281538164818C
:1011D0007581868183DEF8013196E770E5CF209135
:1011E000AE013091AF014091B0015091B1016091D9
:1011F000B2017091B3018091B40170CE0895E09175
:1012000074019091750127E0E91302C080E0089510
:10121000AE2FB0E02E9FF0011124EA58FE4F31812D
:10122000361306C03081381303C03581341304C02F
:10123000FD013196E770E8CF81E00895A0E0B0E0CD
:10124000E4E2F9E00C949B2A8091B401803108F02B
:1012500048C08091B301882309F443C0C091740150
:1012600087E0D82E809175018C17D9F1EC2EF12CE6
:10127000DC9EE0011124FE01EA58FE4F84818823A0
:10128000A9F191818091AF01981330C09081809134
:10129000AE0198132BC08581811128C00281138172
:1012A0008091B0019091B101081B190B60E08EEAAA
:1012B00091E029DA6EEA71E00E94D5170817190744
:1012C000A8F48091B4018F7080618093B401C458F8
:1012D000DE4F88818F70806188838EEA91E09ADD8D
:1012E0005DDFCDB7DEB7E7E00C94B72AE7012196C2
:1012F000C770B8CFADE0B0E0E0E8F9E00C94932A15
:101300008C0186E0F801DE01189601900D928A9515
:10131000E1F7F80160805180F580C280D38074804D
:101320008EEAA82E81E0B82E8091B201811117C0FB
:10133000772009F4F3C0FF2009F43AC1C801B9DDF0
:10134000882309F435C187E0F801D50101900D9299
:101350008A95E1F7C5010FDB71DF41DFDFC0E09067
:10136000B3018091B0019091B1014601881A990AA8
:1013700060E08EEA91E0EE2009F4D3C0C4D96EEAB1
:1013800071E00E94D5178816990608F09BC0772057
:1013900009F4C4C08091B4012091AF01F80191819A
:1013A000803108F055C0291319C02091AE019081F9
:1013B000291314C0F11046C08F7080618093B4016E
:1013C0000EDF8EEA91E026DD8091B401F80186837C
:1013D000F12C8F2D2D96EFE00C94AF2AF11032C036
:1013E00040E0652D862D0BDF40E0652D862D07DF63
:1013F000F82E8111EDCF888599857CDE292F2295E5
:101400002F70903450F49F70223078F0992389F037
:10141000F8019681903168F4DCCF2A5F2F7022307A
:1014200060F0C801F7DCFE2CD4CF992311F088239B
:1014300081F2805E883068F2F4CF803F50F2815FA5
:101440008230F9CF8091B40181608093B401C0CF24
:10145000291313C02091AE01908129130EC0F11001
:101460000CC08683C801D6DC87E0F801AEEAB1E0A3
:1014700001900D928A95E1F770CFC8011ADD88239B
:1014800009F496C0FF2009F493C08091B401803222
:1014900080F02091AE013091AF013A832983DC8244
:1014A000CB829091B2019D831E828F83CE010196E3
:1014B000B1DC87E0F801AEEAB1E001900D928A95C7
:1014C000E1F74ACF8091B401803188F4488559858D
:1014D0006A857B858C859D85F7DC8EEA91E09ADCB8
:1014E00087E0F50111928A95E9F779DE71CF7720CF
:1014F000A9F02091AF01F80191812913BECF20916D
:10150000AE0190812913B9CFF110B7CF8683C801FE
:1015100081DC87E0F50111928A95E9F7FF24F394C5
:1015200058CFF1D86EEA71E00E94D5178816990657
:1015300008F041C0772091F3FF20D1F19091AF01E5
:10154000F801818198132BC09091AE01808198138E
:1015500026C08091B0019091B101C81AD90AF8EC67
:10156000CF16D10498F48091B40180FD0FC0803172
:1015700068F0F8018683982F907F903F09F472CF2E
:10158000982F907F905F8F70892B6BCF87E0F80149
:10159000AEEAB1E001900D928A95E1F7BFCFC801A4
:1015A00088DC811186CF8091B40181608093B40181
:1015B000C80130DCB3CF488559856A857B858C8529
:1015C0009D8582DC8DCFAEE0B0E0E9EEFAE00C94D0
:1015D0009F2A288739874A875B876C877D878E8714
:1015E000CE01089687DE8823A9F06C85662339F042
:1015F000288539854A855B857D858E856FDC17E07A
:10160000809174019091750189133CC02E96E3E09E
:101610000C94BB2A87E0FE013896DE0111960190FA
:101620000D928A95E1F720917501409174018C85A6
:10163000882329F330E0C90101968770992750E08B
:101640008417950791F097E0929FD001939FB00D7A
:101650001124AA58BE4FFE01319601900D929A9521
:10166000E1F7809375019ADDCACF03DC1092750112
:101670001092740187E0EEEAF1E0DF011D928A9595
:10168000E9F7BDCF189FC00111248A589E4F32DE62
:10169000882309F4BBCFE09174011E9FF00111244F
:1016A000EA58FE4F208131814281538164817581E6
:1016B000868114DC8091740190E0019687709927EF
:1016C000809374019DCF0E9466212091C0013091CA
:1016D000C101AC01421B530B9A0181E02838334110
:1016E00008F480E008958091BF01869586958695DF
:1016F00008958091BF01877008950E94662120910E
:10170000BD013091BE01821B930B8838934148F094
:101710008091BF0182FB882780F991E08927817041
:10172000089580E0FCCF9091BF01977081E0911106
:1017300001C080E008958091CD0108959091CD0180
:10174000982B9093CD010895982F90958091CD017D
:1017500089238093CD0108951092CD010895809141
:10176000CC0108959091CC01982B9093CC010895D1
:10177000982F90958091CC0189238093CC01089576
:101780001092CC0108958091C30108950895FECF71
:101790000895982F8091C201282F2923291721F01D
:1017A000892B8093C201F3CF08959091C201292F14
:1017B0002823222329F0809589238093C201E7CF33
:1017C00008950895FECF0895CF93C82F8091C30147
:1017D0008C238C1769F00E9466219093C10180933D
:1017E000C0018091C3018C2B8093C3018C2FEADF51
:1017F000CF9108959091C301292F2823222379F0B6
:10180000809589238093C301882351F00E9466212B
:101810008093C0019093C1018091C301D3CF0895FB
:1018200080E090E0F5CF8091C301882341F01092D1
:10183000C3011092C1011092C00180E0C3CF08958E
:101840000F931F93CF93DF9300910001109101013B
:10185000C091CD018091CC01C82B8091C301882318
:1018600051F031DF8111DFDFD091C3010E9465208B
:101870008111D9DFCD2BF801C083C0910001D09137
:10188000010148E050E065EB71E0CE010E94D02AF2
:10189000892B59F088E0FE01A5EBB1E001900D9293
:1018A0008A95E1F7CE010E945A20DF91CF911F91D6
:1018B0000F910895C5CF08950895FECF0895909192
:1018C000C60292FF15C098E0899F90011124622BF7
:1018D0006093BF0139DB0E9466219093BE01809323
:1018E000BD018091BF01869586958695E6CF0895C6
:1018F0002BCB08951092BF011092BE011092BD0132
:1019000080E0DBCF08959091BF018095892380937B
:10191000BF01282F277021110BC0891749F0909122
:10192000C60292FF05C086958695869518DBE2CFA4
:1019300008959091C60292FB222720F9281759F0AA
:1019400080FB92F99093C6028091C5029091C602E5
:1019500034D082E0D8CF08958091C60282FB8827D8
:1019600080F991E08927E5CF089581E0E2CF0895DD
:1019700080E0DFCF08956FEF7FEF80E090E00C9480
:10198000332B089580E090E00E94052B863E9E4F09
:1019900019F40C94991E089580E0089582E090E077
:1019A0000C94FD2A089583E090E00C94FD2A08959C
:1019B00084E090E00C94052B0895BC0184E090E055
:1019C0000C94332B0895AB01BC018FE090E00C9494
:1019D0002B2B0895AB01BC0183E190E00C942B2BE1
:1019E000089560E070E0CB01F5CF089560E070E00D
:1019F000CB01E9DFF6CF0895A8E0B0E0E2E0FDE03A
:101A00000C94A02A66EE7EEF80E090E00E94332BDB
:101A100060E082E090E00E94192B81E080937301E6
:101A200061E083E090E00E94192B60E074E184E0C3
:101A300090E00E94332B60E086E090E00E94192B3A
:101A40006FEF87E090E00E94192B40E050E0BA0170
:101A500088E090E00E942B2B60E084E290E00E94FE
:101A6000192B60E087E190E00E94192B60E08CE088
:101A700090E00E94192B60E08DE090E00E94192B0D
:101A800019821A821B821C821D821E821F82188666
:101A900048E050E068E170E0CE0101960E940A2B18
:101AA00040E050E0BA0180E290E00E942B2B80E001
:101AB0000E94B21E0E94F01E99DF2896E2E00C946C
:101AC000BC2A9ACF0895682F8EE090E00C94192BD1
:101AD0000895A6E0B0E0EFE6FDE00C949E2A0E9497
:101AE00066218C018091CE019091CF0180179107E2
:101AF00079F019821A820E946621BC0149815A81BB
:101B000080E090E00E9481041093CF010093CE0109
:101B10002696E4E00C94BA2AE0D26093DE0170933A
:101B2000DF018093E0019093E1016093DA0170930B
:101B3000DB018093DC019093DD0108950895089501
:101B4000FDCF08950895FECF089581E008958FE9AF
:101B500090E149D765D7F3DFF3CF0895F4C4089532
:101B600008950895FDDFFDCF089502D30C945A0423
:101B700008950E945D217CD20E94FB1EE9D425D4E9
:101B8000F4DF0E943D18F1D4DECF0895DCD481113A
:101B90000C942C1E0895A6E0B0E0E1EDFDE00C945D
:101BA000972AD3DF811108C094DFF0DF0E94690417
:101BB0002696EBE00C94B32A29D480EDA82E81E080
:101BC000B82E750110E0F70101917F01812FFFD23E
:101BD0001F5F1A3009F43FC00817A9F38091E20192
:101BE00081FDFBD2BBDFC82E00E099249394802FA7
:101BF000EED2182FF50191915F01891739F1D82E96
:101C0000D926F12CEE24E3948D2D8E218823B1F07A
:101C1000CC20A1F0F9820A830E9466219C838B83E9
:101C20009D8291E0812F8E21811101C090E0498138
:101C30005A816B817C818D810E948104F394EE0C2A
:101C4000F6E0FF12E1CFF501319710830F5F0A3004
:101C500071F662DFAACF0813C1CFA6CF1F93CF932F
:101C6000DF9313D1EC01811522E5920708F04AC0F9
:101C7000811540E5940708F0C1C0883E910580F0C9
:101C8000811550E4950720F19927FFD0CC27DF700C
:101C9000C82BD92BD06ACE01DF91CF911F91089527
:101CA000803E9105C0F7853A910550F4049798F766
:101CB00081E0219709F080E0C82F80E0D82FEBCF9A
:101CC0008D5C9109D065439730F3C0E0D0E0E3CF5D
:101CD000C11590E2D90708F0A9C0CE019A958115E7
:101CE0009F4198F78D2F75D1182FCE019927CDD010
:101CF000212F30E0322F2227E901CC27DF71C82BBA
:101D0000D92BC9CF803842E59407C0F5803652E51B
:101D1000950708F055C0C03482E5D807B0F08C2F85
:101D200086958695877020E2829FC0011124C3703A
:101D300021E030E0A90102C0440F551FCA95E2F727
:101D4000EA01C82BD92BDC68A6CFC03252E5D507F3
:101D500080F58C2F8695869520E2829FC001112404
:101D6000C37021E030E0A90102C0440F551FCA959D
:101D7000E2F7EA01C82BD92BDD688DCF803C52E514
:101D8000950758F48F71C03AD24578F590E0982FB6
:101D90008827EC01C46FD06A7ECF805C9245809723
:101DA00008F093CFDC2FCC27CC27DF71C06FD06A2F
:101DB00072CFCF71D0E0DC2FCC27C16FD06A6BCF50
:101DC00086958695877020E2829FC0011124C3709A
:101DD00021E030E0A90102C0440F551FCA95E2F787
:101DE000EA01C82BD92BDA6856CFF3D0C82FD0E040
:101DF000DC2FCC27CC27DF71D0624DCF8F71E9D09B
:101E000065E0D695C7956A95E1F7CF70D0E0DC2FF5
:101E1000CC27282F30E084FF05C054E0220F331F69
:101E20005A95E1F7C22BD32BD06935CF8D2F8F7107
:101E3000D0D0182FCE01992728D0212F30E0322F73
:101E4000222722273F71282B392BE901D5CF462F96
:101E5000672F2091A6023091A702232B81F4703FB7
:101E600039F4403F61F48091DD029091DE020895E3
:101E70007A3028F4463018F40C94C219089580E0A2
:101E800090E00895E4DFEACE0895803E9105D1F117
:101E9000C8F48133910509F47FC048F48932910573
:101EA00009F46FC08A32910509F47DC00895893321
:101EB0009105E1F082389105C9F08533910509F467
:101EC0005BC00895843E9105D1F148F4823E9105AE
:101ED00031F1833E910541F181EE90E00895863E17
:101EE0009105C1F1873E9105E1F108952091C50268
:101EF0002370211165C02091C60223FF14C089E21E
:101F000090E008952091C50220FD43C03091C602A3
:101F100030FF09C024FF4EC080E090E0089520917A
:101F2000C50222FDF7CF08952091C50222FD45C0CC
:101F30003091C60230FD44C024FFF5CFEDCF209193
:101F4000C60221FFF0CF8091C50284FDE5CF87EE68
:101F500090E008952091C50223FFE5CF24FDDCCF5A
:101F6000F6CF2091C50223FD2EC03091C60231FF6D
:101F7000E3CF84EE90E008952091C50225FFD3CFF2
:101F8000BECF2091C50225FD21C02091C60223FFAE
:101F9000CACF89E390E008952091C50226FFC3CF00
:101FA0008AE290E008952091C50226FFBCCF81E32C
:101FB00090E0089583EE90E0089582EE90E0089519
:101FC00080EE90E0089586EE90E0089585E390E03D
:101FD000AACF9091C50292FF10C041E0282F247132
:101FE000243009F040E031E0282F2871283009F032
:101FF00030E0431711F02CE0822793FF10C041E03E
:10200000282F2471243109F040E031E0282F287175
:10201000283109F030E0431711F02CE0822730918D
:10202000C60230FF10C051E0282F2171213009F085
:1020300050E041E0282F2871283009F040E0541783
:1020400011F029E0822731FF10C041E0282F2171D3
:10205000213109F040E031E0282F2871283109F0C2
:1020600030E0431711F029E0822794FD877E089520
:102070001092C1021092C2021092C3021092C402C6
:102080000895CF92DF92EF92FF92CF93DF9300D02B
:1020900000D0CDB7DEB76B017C0155D2811112C0E3
:1020A0000E94722169837A838B839C83C61AD70A24
:1020B000E80AF90AC092C102D092C202E092C302B9
:1020C000F092C4020F900F900F900F90DF91CF917C
:1020D000FF90EF90DF90CF900895A4E0B0E0E3E7A9
:1020E000F0E10C94A02A2FD2882371F00E94722173
:1020F00069837A838B839C8369817A818B819C81BC
:102100002496E2E00C94BC2A0E94722169837A83AF
:102110008B839C838091C1029091C202A091C302E3
:10212000B091C40229813A814B815C81280F391F0B
:102130004A1F5B1F29833A834B835C83DDCF80E09A
:10214000089519CC089562D12FEF86E791E02150D0
:1021500080409040E1F700C0000058D180E037D0C7
:1021600080FF03C0EEDF0C94E2210895ECCF0895C8
:1021700009DC811101C0A5DC11DC8093E20118DCCF
:102180009093C6028093C502F1DF0DDC0E948007A8
:10219000809172010C94930708950895FECF0895DD
:1021A0000895FECF0895E82FF0E0EE52FD4F8081B4
:1021B00090E021E030E002C0220F331F6A95E2F781
:1021C0002823392381E0232B09F480E00895E82FA8
:1021D000F0E0EE52FD4F80810895089580EA8A95DF
:1021E000F1F7089500C00895F9CF08950895FECF3E
:1021F0000895A5E0B0E0EFEFF0E10C949B2AA3D1A5
:10220000182F6091DC02882309F443C01A821982D6
:10221000FE01339683E0DF011D928A95E9F7862F50
:1022200090E032977F01BF018E529D4FAAD1DE2CE4
:102230000F2D8823B1F08091C70290E045E050E077
:10224000B7018E529D4F0E94D02A21E02093E301D6
:10225000892B91F410E0A5DF812F2596E7E00C94FF
:10226000B72A8091E3018823A9F385E0D7011D9265
:102270008A95E9F71092E301A091C702B0E0AE524F
:10228000BD4F85E0ED2DF02F01900D928A95E1F77D
:10229000E2CF70E06E527D4F8091C70290E08E5287
:1022A0009D4FF6D1A4DFD8CFF894E82FE295EF70D8
:1022B000F0E041A18F7021E030E0B90102C0660F6B
:1022C000771F8A95E2F7CB01962F9095942391A3DF
:1022D00092A1892B82A3789408950F931F93CF9393
:1022E000DF93C3E4D1E089918F3F09F0DDDF81E026
:1022F000C834D807C1F7CDE3D1E003E411E08991F8
:102300008F3F09F0D1DF0C171D07C9F7DF91CF917F
:102310001F910F910895A0E0B0E0E1E9F1E10C9484
:102320009A2AEC01D62E062F10E0C8018D5B9E4F35
:102330007C01FC0180818F3F09F442C0F894E82FB2
:10234000E295EF70F0E091A18F7021E030E001C0E4
:10235000220F8A95EAF7892F822B81A382A12095EB
:10236000282322A378943EDFEDE3F1E091E0C12C35
:1023700081918F3F81F0A82FA295AF70A05EB0E051
:102380002C9130E08F7002C0359527958A95E2F741
:102390002170892F211180E0C82A990F81E0E33450
:1023A000F80731F7F70180818F3F09F07DDF61E0A9
:1023B000C11001C060E08D2D17DFC00FD11FC88292
:1023C000CDB7DEB7E8E00C94B62A80910201809187
:1023D000020190E0811101C095E09093DC0285E05C
:1023E000891B8093C70279DF8AE0E2EDF2E0DF012A
:1023F000982F1D929A95E9F7E8ECF2E0DF011D9223
:102400008A95E9F785E040D0C9CE0895AAE0B0E00A
:10241000ECE0F2E10C949D2A1A821982FE013396B7
:1024200088E0DF011D928A95E9F7F12C8E010F5F9C
:102430001F4F6F2DC8016FDFF394B5E0FB12F9CF8A
:102440004AE050E0B80188EC92E00E94D02A21E0F6
:10245000892B89F420E06091DC0270E06E527D4FA0
:1024600045E088EC92E011D0182FC3DE812B2A962C
:10247000E5E00C94B92A8AE0F801A8ECB2E00190FA
:102480000D928A95E1F7E7CF0895A0E0B0E0EBE484
:10249000F2E10C949A2AD82EE92EF62ED72F042F8B
:1024A000C22F222379F081E08093E6010E94662109
:1024B0009093E5018093E40180E0CDB7DEB7E8E0DA
:1024C0000C94B62AC090E601CC20B1F38091E401CF
:1024D0009091E5010E948F21059770F310E0A8010B
:1024E0006D2D7E2D8F2D9D2F0E94D02A892B41F09E
:1024F000A8016D2D7E2D8F2D9D2F0E94DD2ACC2DC4
:102500001092E6018C2FD9CF0F931F93CF9308EC35
:1025100010E00E947D2AC82F81110DC08FE39CE935
:102520000197F1F700C000000150110901151105D4
:1025300081F70E94792A8C2FCF911F910F910895D6
:102540008091EA0108958091E9010895FCCF0895F2
:10255000DBDF8093E901FADF8093EA01F1DF80930A
:102560000201F1DF811142C00895EDDF811101C048
:1025700040C0089581E09091EB019A3008F080E02E
:1025800008950F931F93CF93DF93EC01162F072F1E
:102590008091EB018A3088F4612F702FCE0176D0C4
:1025A000811121C08091EB018F3FB1F40E9466211F
:1025B0009093E8018093E70109C08091E701909131
:1025C000E8010E948F21843F914030F780E0DF9145
:1025D000CF911F910F9108958F5F8093EB018A3007
:1025E00028F781E0F4CF1092EB01FBCF0C94582236
:1025F00008950C945B220895A0E0B0E0E2E0F3E1DE
:102600000C949A2AFA0169017801C82F880FDD0B12
:102610003097B1F0DE0193E0AA0FBB1F9A95E1F766
:10262000AD5FBE4F11968D919C91129784519E4F34
:102630004C9150E0E417F50708F4AF010E94DD2A41
:10264000CE010E943E23182F8823D1F0E114F1041B
:10265000B9F083E0CC0FDD1F8A95E1F7FE01ED5F55
:10266000FE4F438150E0E416F50608F4A701CD5F64
:10267000DE4F6C817D8164517E4FC6010E94DD2A50
:10268000812FCDB7DEB7E8E00C94B62A39C10895A2
:1026900058C10895A8E0B0E0E0E5F3E10C949E2A6B
:1026A00080910C0290910D02A0910E02B0910F0248
:1026B000BC01CD010E949E2111E0643671058105A7
:1026C000910510F10ADDDC01CB010296A11DB11DBF
:1026D00089839A83AB83BC8300E010E020E030E084
:1026E00044E050E0BE016F5F7F4F83E085DF182F2D
:1026F000882351F00E94722160930C0270930D02A6
:1027000080930E0290930F02812F2896E4E00C94A0
:10271000BA2AA6E0B0E0EFE8F3E10C949E2A8E839B
:102720009D8360914801709149016A5F7F4F45E048
:1027300050E00E94D02A8C018091080290910902F9
:10274000A0910A02B0910B02BC01CD010E949E2112
:10275000643671058105910518F401151105B1F074
:1027600000E010E020E030E045E050E06E817D8147
:1027700082E042DF882359F00E94722160930802B0
:102780007093090280930A0290930B0281E02696CF
:10279000E4E00C94BA2AAAE0B0E0E1EDF3E10C9495
:1027A000982A7B01A0904801B090490101E010E017
:1027B0009E012A5F3F4F40E050E060E070E080E023
:1027C0001BDF182F882309F44AC065018FEFC81A50
:1027D000D80A8091040290910502A0910602B0915E
:1027E0000702BC01CD010E949E216F8378878987F3
:1027F0009A87643671058105910550F105E010E076
:102800009E012F5F3F4F40E050E060E070E081E0CC
:10281000F3DE182F65E070E0C60130D49E81981376
:1028200029C0112339F10E94722160930402709330
:102830000502809306029093070285E0FE0131961F
:10284000AFEFB1E001900D928A95E1F781E013C0FE
:1028500065E070E0C60112D49E818913CFCF85E078
:10286000F5013196DE01119601900D928A95E1F7FE
:102870001111E3CF80E095E0EFEFF1E0D701019097
:102880000D929A95E1F72A96EAE00C94B42AA0E01A
:10289000B0E0EDE4F4E10C94982AF82EE92EB62E7F
:1028A000A72E8A0167DECC24C394D12C882319F08B
:1028B0008AE0C82ED12CC1E0D0E06B2D7A2D8F2D6F
:1028C0009E2DF8010995811116C02196CC16DD06C2
:1028D00094F0CC9FC001CD9F900D900D112420E06D
:1028E00030E045E34A95F1F700002F5F3F4F28178E
:1028F0003907B9F7E2CFCDB7DEB7EAE00C94B42AD6
:102900000F931F93CF93DF93D82FC92F8B014BECDD
:1029100053E1BDDF811106C080E0DF91CF911F91AF
:102920000F91089549E853E1B8018D2F9C2FAFDF37
:10293000882391F34AE453E1B8018D2F9C2FA7DF40
:10294000ECCF0F931F93CF93DF938C01FB01C091CA
:102950004801D0914901CE01019625E0DC010190AA
:102960000D922A95E1F765E070E088D38883FE0137
:10297000369685E0D80101900D928A95E1F76B8536
:102980007C858D859E850091FB011091FC01209135
:10299000FD013091FE01601771078207930749F02E
:1029A0006093FB017093FC018093FD019093FE0105
:1029B00068DBDF91CF911F910F9108950E94FC2455
:1029C000D8D80C94062508950E940A25E4D80C94C2
:1029D000202508950E94FF200E94E324B8D8EEDF4E
:1029E000F3DFC0D8FDCF9093530180935201089537
:1029F000E0E1F2E080E090E062EB77E141E457E172
:102A00002AEE36E1778366835187408733872287B2
:102A100097878687019670968830910599F7089573
:102A2000E7CF0895AAE0B0E0E8E1F5E10C94982A38
:102A30008C01603239F5DC011196EC911197EE3082
:102A400008F5F0E0E05BF44D0C94832A88E0E1E3C4
:102A5000F1E0DE01119601900D928A95E1F7F801FF
:102A600031968FE1DF011D928A95E9F786E0F80142
:102A7000808388E0FE013196D801149601900D9272
:102A80008A95E1F72A96EAE00C94B42A88E98C93B7
:102A900082E011968C93119712961C9212971396BE
:102AA0001C92F0CFFC0182819381092E000CAA0BAD
:102AB000BB0B55E0880F991FAA1FBB1F5A95D1F772
:102AC000AC01BD01405E5F4F6F4F7F4F803EFFEF17
:102AD0009F07AF07BF07B0F6883922E09207A1052C
:102AE000B10580F6493932E053076105710520F0E0
:102AF00048E952E060E070E0481B590BBC016C5D96
:102B00007E4FC8010E94C72ABDCF4FE150E06FEF52
:102B100070E001960E94E62A8091A802D8018C9369
:102B20008091A60211968C93119712961C9212977F
:102B300013961C92139785E014968C931497159610
:102B40001C92159783E016968C93169717961C92F5
:102B5000179788E018968C93189719961C9292CF25
:102B600081E090E09093A7028093A60282E390E038
:102B70009093A5028093A4020E9466219093A302E1
:102B80008093A2027FCF8091A6029091A702892B09
:102B900009F441C02AE4C22E21E0D22E3EE4A32E45
:102BA00031E0B32EEE24E394F12CF60161916F0134
:102BB000D5018D915D01F7DA90E0E822F922BEE4BB
:102BC000CB16B1E0DB0689F78091A2029091A302B7
:102BD0000E948F218536910548F1E114F10431F10D
:102BE0000E9466219093A3028093A2028091A40286
:102BF0009091A50201979093A5028093A402892B3E
:102C000051F41092A7021092A60281E090E09093F6
:102C1000A9028093A8028091A802F8018083809184
:102C2000A60281838091A40282832CCF82E390E06C
:102C30009093A5028093A402EECF1092A902109265
:102C4000A80220CF40E250E06FEF70E00E94E62A39
:102C500019CF12968C911297813079F0823019F148
:102C6000811110CFF80131968FE1DF011D928A9515
:102C7000E9F788E0F801808305CF13968C919AE0FC
:102C8000D92EFE0131967F01DF01ED2D1D92EA95CF
:102C9000E9F7B7015AD2D8018D93F70101900D924F
:102CA000DA94E1F7EFCE13968C919AE0F80134961E
:102CB000AE014F5F5F4FDA0101900D929A95E1F7F7
:102CC00029813A81BA012115BCE73B0741F44091C3
:102CD000A8025091A902452B11F420E030E03A837C
:102CE00029832B813C812115ECE73E0741F440917B
:102CF000A8025091A902452B11F420E030E03C835A
:102D00002B832D813E812115FCE73F0741F4409143
:102D1000A8025091A902452B11F420E030E03E8337
:102D20002D832F81388521159CE7390741F4409187
:102D3000A8025091A902452B11F420E030E0388719
:102D40002F8318D2D8018C9353DE9CCEA6E0B0E03E
:102D5000ECEAF6E10C94A02A9093DE028093DD0267
:102D6000811520E2920730F40E9424032696E2E0C7
:102D70000C94BC2A80EF89838A830E94662181603B
:102D8000BC0149815A8181E091E00E948104EECF2B
:102D9000A6E0B0E0EEECF6E10C94A02A9093DE02FF
:102DA0008093DD02811520E2920730F40E943803FF
:102DB0002696E2E00C94BC2A80EF89838A830E94E5
:102DC00066218160BC0149815A8181E090E00E94C6
:102DD0008104EECF0F931F93CF93DF938C01EB0110
:102DE00060E972E08C2FB1D1892B71F4DD27C656D2
:102DF000DD4F8881F801128218828330E9F048F4AF
:102E0000813059F0823081F0DF91CF911F910F9185
:102E100008958430B1F08530B9F780919002909197
:102E20009102009789F306C08091920290919302DB
:102E3000009799F3ADDFE8CF8091940290919502CD
:102E4000F7CF8091960290919702009799F7209181
:102E500090023091910280919202909193022115FB
:102E60003105F9F2009731F7C901E4CFCF93DF9331
:102E7000D82FC92F6BDF8D2F9C2F8ADFDF91CF9149
:102E800008950F931F93CF93DF938C01EB0160E9BB
:102E900072E08C2F5AD1892B09F057C0FE01FF2711
:102EA000D80112968C911297E656FD4F8130A9F405
:102EB00015968C9182FD4EC080FF4CC082E08083CD
:102EC00080919202909193020097B9F480919002C0
:102ED000909191020097C9F110C08230A1F515962A
:102EE0008C9182FD26C080FD0AC083E080838091A2
:102EF0009402909195020097F1F028DF26C084E0BB
:102F0000808380919602909197020097B1F780910B
:102F1000900290919102009701F1A8DF80919202B6
:102F200090919302009749F78091900290919102BD
:102F3000E4CF85E080838091900290919102009788
:102F400021F094DFF1CF86E08083DF91CF911F9154
:102F50000F91089581E08083B9CF80919202909182
:102F60009302B8CF0F931F93CF93DF938C01862FDB
:102F700060E972E0EAD0892B99F4C0919002D09177
:102F80009102209769F0F8018281833039F4CE01F3
:102F90006DDFCE016BDFCE0169DF02C08430D8F770
:102FA000DF91CF911F910F910895AAE0B0E0EBED72
:102FB000F7E10C94A02A9C0197558F3F910539F0B9
:102FC00030F088EC90E02A96E2E00C94BC2ABE0136
:102FD0006F5F7F4F822FB9D0892B99F789859A85AA
:102FE000F2CFCF93DF93EC01FB01858181112FC0DC
:102FF000D755CF3FD10509F050F560E972E08C2F2D
:10300000A4D0892B21F5CE0124E0880F991F2A95A1
:10301000E1F7FC01E05FFD4F22812130E1F42091D6
:10302000900230919102232B91F0209192023091E5
:103030009302232B61F020919402309195024091EC
:10304000960250919702242B352B232B61F081E0BF
:10305000DF91CF9108952230D1F7209194023091E1
:103060009502232BA1F3FC01EB5EFD4F20812E7F07
:103070002083805F9D4F48D5EACF0895FC01680FFB
:10308000791F8FEF91E3E617F70709F4089521916F
:10309000822728E030E087FF08C0880F8927215069
:1030A000310921153105B9F7EECF880FF8CF84E04B
:1030B000089550E0440F551F9CE0699F400D511D3D
:1030C000112498E7899F400D511D1124CA0189964A
:1030D00008950F931F93CF93DF938430C0F46A3029
:1030E000B0F44630A0F4E5DF8C010E94FD2AC82F21
:1030F000D0E0DC2FCC27C80101960E94FD2A9E015A
:10310000282BC901DF91CF911F910F91089580E085
:1031100090E0F8CF0F931F93CF93DF93122F032FDD
:10312000843070F46A3060F4463050F4C2DFEC0151
:10313000602F0E94192B612FCE0101960E94192B3E
:10314000DF91CF911F910F910895282FCB01283047
:1031500070F44AE0249F90011124B901675F7D4F0C
:103160004AE050E00E94ED2A80E090E008958FEF61
:103170009FEF0895282FCB01283070F44AE0249F58
:1031800090011124B901675F7D4F4AE050E00E9431
:10319000372B80E090E008958FEF9FEF0895CF9256
:1031A000DF92FF920F931F93CF93DF93CDB7DEB7DC
:1031B0002A970FB6F894DEBF0FBECDBFC090A8020D
:1031C000D090A90281E090E09093A9028093A80298
:1031D00000E010E011C04F2D612F802F0E94DA0215
:1031E0009C014F2D612F802F95DFF39486E0F8121C
:1031F000F2CF1F5F1A3011F0F12CEDCF0F5F0430CA
:1032000041F71A8219821C821B821E821D82188637
:103210001F8288EC90E09A87898710E0BE016F5F7B
:103220007F4F812FA7DF1F5F1830C1F7D092A9020F
:10323000C092A8022A960FB6F894DEBF0FBECDBF8B
:10324000DF91CF911F910F91FF90DF90CF90089564
:10325000EF92FF920F931F93CF93DF938C01EA01BC
:103260007A01E60EF71ECE15DF0529F4CDB7DEB7DD
:10327000E6E00C94B82A003E81E0180740F4C8014B
:1032800089960E94FD2A89930F5F1F4FECCF80E043
:10329000FACFA0E0B0E0EFE4F9E10C94942AEC015D
:1032A0007B018A01803E914098F480EE91E08C1B76
:1032B0009D0B8617970760F08091A8029091A90254
:1032C000892B59F0E00EF11E0E151F0509F04CC0B8
:1032D000CDB7DEB7EEE00C94B02A3E0139E2630EC2
:1032E000711C6E0181E0C822DD24C114D10479F083
:1032F000CE0188960E94FD2AF8019081892798279F
:10330000892781159C4719F48FEFF8018083CE013E
:103310008E0D9F1D570180FF13C0F1E0AF1AB10859
:1033200048018A0C9B1CC3018E0D9F1D0E94FD2A23
:10333000F401908181159C4719F48FEFF40180838B
:10334000F801EC0DFD1D2FEFCA14DB0408F0BACF15
:103350009081818181159C4711F42083218382E033
:10336000C80ED11C3296F0CFC03EE1E0DE0730F44B
:10337000F8016081CE0189960E94192B0F5F1F4FC3
:103380002196A2CF843030F46A3020F4463010F415
:10339000A0CE089580E090E0089580E1089587EA46
:1033A00091E00895EF92FF920F931F93CF93DF93D5
:1033B0008C01EA017A01E60EF71ECE15DF0529F42D
:1033C000CDB7DEB7E6E00C94B82A073A81E01807DB
:1033D00048F4C801875A9D4F0E94FD2A89930F5FC8
:1033E0001F4FEBCF80E0FACFEF92FF920F931F9326
:1033F000CF93DF938C01EA017A01E60EF71ECE151A
:10340000DF0529F4CDB7DEB7E6E00C94B82A073A19
:1034100081E0180730F46881C801875A9D4F0E94E7
:10342000192B21960F5F1F4FEACFCF93DF93C9E58A
:10343000D2E060E0CE010E94192B2196C11584E0F4
:10344000D807B9F7DF91CF910895A4E0B0E0EBE29F
:10345000FAE10C949A2AF82E2FE0281708F4A9C054
:103460008FEF93E00E94FD2A8111A3C009E512E0CD
:10347000F1103BC08091390190913A01A0913B013C
:10348000B0913C0189839A83AB83BC8378018FEF31
:10349000E81AF80AC8010E94FD2A89831A82882343
:1034A00009F487C0813009F07EC0680192E0C90E3E
:1034B000D11CC7010E94FD2AE82E8A83882309F4C3
:1034C00078C0C6010E94FD2AF82E8FEF8E0D833042
:1034D000D0F4FB82FF2019F0CE0101963FD26801A3
:1034E00053E0C50ED11C8601D1CF011544E014076D
:1034F00009F45FC0C8010E94FD2A0F5F1F4F8111B0
:10350000F4CFFA94B5CF8BEF8E0D833028F5680198
:1035100023E0C20ED11CFB82FF2029F3C6010E94CA
:10352000FD2A8C83882379F08B819C8181304FEF39
:10353000940710F0982F882756E0E51649F027E009
:10354000E21641F093DC680144E0C40ED11CCBCFFD
:10355000FDDBF9CF1DDCF7CF54E0E512C4CF6801E5
:1035600084E0C80ED11CC80103960E94FD2AFF20EA
:1035700001F18823F1F08150990B4FEF489F9001A2
:10358000499F300D11244F2D4150550B240F351FED
:103590002150310908F4A7CF8FE99FE00197F1F797
:1035A00000C00000F5CF60E0CE01019671D1670147
:1035B0009ACF2496E8E00C94B62ACF93DF93EB01E0
:1035C00086319C4709F50E949B0B9D81992399F0B8
:1035D0008A7A91E0811101C090E09093AA02882339
:1035E00041F085E3C3D50E945A0C80E0DF91CF9172
:1035F000089589E2F7CF8091AA02882319F085E324
:10360000BCD5F1CF89E2FCCF81E0F0CFCF93DF933F
:10361000EC01FB018581882309F4D2C09E0130575B
:103620002332310508F0B2C00E94D80C9093C60234
:103630008093C502FE01E150F047E232F10520F42B
:10364000E25AF44D0C94832A8091C50281608093E4
:10365000C50293C08091C60288608093C6028DC067
:103660008091C5028260F3CF8091C5028460EFCF64
:103670008091C5028860EBCF8091C6028160EDCF5A
:103680008091C6028260E9CF8091C5028061DFCF60
:103690008091C5028062DBCF8091C5028064D7CF64
:1036A0000E9439078091C5028068D1CF8091C50200
:1036B0008C60CDCF8091C6028360CFCF8091C50250
:1036C0008E7FC5CF8091C602877FC7CF8091C5020C
:1036D0008D7FBDCF8091C5028B7FB9CF8091C50210
:1036E000877FB5CF8091C6028E7FB7CF8091C6020B
:1036F0008D7FB3CF8091C5028F7EA9CF8091C50207
:103700008F7DA5CF8091C5028F7BA1CF0E94390705
:103710008091C5028F779BCF8091C502837F97CF21
:103720008091C6028C7F99CF8091C50282FB992738
:1037300090F921E0922790FB82F990FB83F987CFE3
:103740008091C602982F909591708E7F892B90FB67
:1037500081F983CF9091C502892F8F7B96FF80647A
:1037600076CF0E9439079091C502892F97FB87F980
:1037700080586DCF81E00E94630D8091C5029091C9
:10378000C6020E94DD0C0E94390780E0DF91CF91D4
:10379000089580E0F0CF9091C502892F8F7E94FF2D
:1037A000806155CF9091C502892F8E7F90FF8160F7
:1037B0004ECF9091C602892F877F93FF88604DCFAF
:1037C00081E0E4CFFF920F931F93CF93DF93E82F15
:1037D000F0E0E454FC4FF490282F2695269526958A
:1037E00030E0F901E45AFB4F94918770F901E45BF2
:1037F000FB4F049110E0082E02C0159507950A941E
:10380000E2F701701127F901E45CFB4FC491D0E0AD
:10381000082E02C0D595C7950A94E2F7C170DD273E
:10382000E92FF0E002C0F595E7958A95E2F7E0FD13
:1038300010C001151105C1F48F2D0E941305CD2B69
:1038400019F08CE20E941305CDB7DEB7E5E00C94C9
:10385000B92A81EE0E94C3040115110579F48F2D58
:103860000E94130581EE07C086EE0E94C3048F2DCF
:103870000E94130586EE0E94E604E1CF86EE0E94C8
:10388000C3048F2D0E94130586EE0E94E604EACF42
:10389000EF92FF921F93CF93DF93EC01162F888155
:1038A000882309F455C0813009F050C089818130E6
:1038B000A1F47E0122E0E20EF11C8A810E94130530
:1038C000E7012196812F882351F3EFE9FFE031973B
:1038D000F1F700C000008150F6CF823041F47E0144
:1038E00082E0E80EF11C8A810E94C304E9CF833094
:1038F00041F47E01E2E0EE0EF11C8A810E94E604B2
:10390000DFCF843011F02196DCCF2A81229680E02F
:1039100090E06AE0AE014F5F5F4F2053330B2A30D7
:10392000310548F0019768F2EFE9FFE03197F1F7D0
:1039300000C00000F7CF689FF001699FF00D1124CF
:10394000C9018E0F9F1F2981EA01E4CF3BDFB9CF68
:10395000DF91CF911F91FF90EF90089560E098CF95
:103960000895A0E0B0E0E7EBFCE10C94982A7C011C
:103970005B01C42FD22FFC0185818823C1F04093C5
:10398000AD02A4D49093AC028093AB0280E28C0F82
:10399000883040F4C77081E001C0880FCA95EAF70B
:1039A0000E941B05CDB7DEB7EAE00C94B42A109153
:1039B000AD02141340C08091AB029091AC02AFD421
:1039C0006C01B701C501F1DAC816D906A0F5C0E24D
:1039D000CD0F1D1749F180E2810F883048F4177030
:1039E00081E0012E01C0880F0A94EAF70E942005A9
:1039F000C83020F0802F0E941305D4CF91E08D2F86
:103A0000877001C0990F8A95EAF7892F0E941B05DC
:103A1000802F0E941305D77081E001C0880FDA95CE
:103A2000EAF70E942005BECF802F0E941305C83000
:103A300008F0B8CFF0CF80E28C0F883008F0B2CF1A
:103A4000C77081E001C0880FCA95EAF7EACF0F93EB
:103A5000FC01CB01E851FC47E730F10588F5E0585F
:103A6000F44D0C94832A06E221EE41EE6AE17CE7F4
:103A700078DF80E00F91089507E225EE45EE6BE1D7
:103A80007CE7F6CF06E221EE40EE68E17CE7F0CF7E
:103A900007E225EE44EE69E17CE7EACF06E221EE9B
:103AA00042EE6CE17CE7E4CF07E225EE46EE6DE105
:103AB0007CE7DECF08E221E045EE6EE17CE7D8CF7F
:103AC000FB01858181111092AD0281E0D3CFFA0113
:103AD000309709F009950895CF93DF93EC014A855B
:103AE0005B856E857F85F3DF8B810E94B80B8C81AF
:103AF0000E94A40B0E945A0C86E0FE0111928A9546
:103B0000E9F7DF91CF910895CF93DF93EC018D8199
:103B100081FD10C082608D838B810E94B20B8C81ED
:103B20000E949E0B0E945A0C488559856E857F85A0
:103B3000CE01CDDF1092B1021092B0028D8180FDD6
:103B400002C0CE01C9DFDF91CF910895CF939C01D0
:103B5000FB01C581CC23E9F08091B0029091B102C4
:103B60000097D1F082179307B9F0992744E0880FA6
:103B7000991F4A95E1F7FC01EB5EFD4F40814460DF
:103B80004083805F9D4FFC0131832083BDDF0E9415
:103B9000C00B8C2FCF910895C0E0FBCF0F931F93E4
:103BA000CF93DF938C01DB0197558F3F910509F08F
:103BB000B0F5F801FF2784E0EE0FFF1F8A95E1F7CB
:103BC000EF01C05FDD4F15968C91EB5EFD4F90814C
:103BD00080FB90F99083882341F178D39093AF02D2
:103BE0008093AE028A818F5F8A830E949B0B8B83B6
:103BF0000E94AF0B9B81982B9B830E94C30B8C83ED
:103C00004E815F816E857F85CE0161DF8D8181FF71
:103C100002C000E010E01093B1020093B00281E016
:103C2000DF91CF911F910F9108954C855D856E8531
:103C30007F85CE014CDF8D8181FFF1CFCE014CDF3E
:103C40008091B0029091B1028017910741F71092D4
:103C5000B1021092B002E3CFA7E0B0E0E2E3FEE1F0
:103C60000C949E2A8091B0029091B102892B49F167
:103C70008091AE029091AF0252D38C01BE016F5F72
:103C80007F4F87E0FB0111928A95E9F78091B0029E
:103C90009091B1028AD98017910798F48091B0026F
:103CA0009091B102992724E0880F991F2A95E1F796
:103CB000FC01EB5EFD4F208122FD03C0805F9D4F24
:103CC00023DF2796E4E00C94BA2ACF93DF939C017C
:103CD000FB0127378CE7380739F028373C47C9F014
:103CE00081E0DF91CF9108958581882371F018D00C
:103CF0000E94A4071BD0D82F16D0C82F11D04D2F4B
:103D00006C2F0E94C60880E0ECCF0AD00E94AF075B
:103D1000F1CF8581882311F006D0EACF04D0F6CF09
:103D200080912501089580912401089580912301B7
:103D3000089585E290E00E94FD2A813D89F486E2A3
:103D400090E00E94FD2A843A59F487E290E00E94B4
:103D5000FD2A91E0823709F090E0892F8170089563
:103D600080E0FCCF882381F061ED85E290E00E9445
:103D7000192B64EA86E290E00E94192B62E787E241
:103D800090E00C94192B08956FEF85E290E00E946B
:103D9000192B6FEF86E290E00E94192B6FEFEFCFA7
:103DA0000895A4E0B0E0E7EDFEE10C94A02A88E2DB
:103DB00090E00E94FD2A282F30E040E050E0CA0148
:103DC000B9012496E2E00C94BC2A0895CF93C62F43
:103DD000FCDF6C2F88E290E00E94192BCF910895B0
:103DE00080E0C0DF60E070E0CB01F0DFD8D91DDB00
:103DF00081E0B8CF0895D4DFD4DFE7DF9ADF811107
:103E000001C0EECF08959C01FB018581882349F014
:103E1000A90157574038510528F4822F16DB80E05E
:103E2000089581E008952FEFFC0120830895AEE00E
:103E3000B0E0EDE1FFE10C949C2A8D839E83162F68
:103E4000AD81BE81EC918091A6029091A702892B51
:103E500079F0EE3F29F511968C91833018F085505A
:103E60008330F0F4612F8D819E810E94121518C05D
:103E7000E43150F4EE2351F0E150E33138F4F0E056
:103E8000E957F44D0C94832AEE3F61F3612F8D8145
:103E90009E81C9DF05C0ED81FE81118289E08283A8
:103EA000612F8D819E8198D42E96E6E00C94B82ADD
:103EB000AD81BE8111968C91823071F08330C1F05A
:103EC000813021F70FD20E94892AED81FE81628321
:103ED000738384839583E4CF64DF0E94892AAD8154
:103EE000BE8112966D937D938D939C931597D8CF39
:103EF0008091A8029091A902892B91F2ED80FE8019
:103F0000B2E0EB0EF11C00E0802F0E94E710F701F9
:103F100081937F010F5F0A30B9F7C2CFAD81BE81B7
:103F200011968C911197823009F0B0CF12968D9135
:103F30009D910D90BC91A02DBC01CD010E94892ABC
:103F400045DFAECFED81FE81438162818181C1D8A1
:103F5000982789279827AD81BE8115969C938E93CB
:103F600014979ECFED81FE8124813581322723274E
:103F70003227438162818181CDD892CF10D990CFF1
:103F80008FEFAD81BE818C938BCF07DAED81FE81FF
:103F9000818386CF04DA982789279827AD81BE814F
:103FA00012969C938E9311977BCFED81FE81218198
:103FB00032819381692F70E09D3108F071CFAF019C
:103FC0004C5F5F4F922F832FEDD96ACF8091A8026B
:103FD0009091A902892B09F463CFAD81BE8111961E
:103FE0002D913C91129713969C911397692F70E035
:103FF0009D3108F055CFAD014C5F5F4F922F832F5D
:10400000F3D94ECF12DA4CCF52D8C0CFAD81BE819A
:1040100011962D913C91129713969C911397692FAD
:1040200070E09D3108F03CCFAD014C5F5F4F922FA7
:10403000832F0ED935CFED81FE812181328193818D
:10404000692F70E09D3108F02BCFAF014C5F5F4FBF
:10405000922F832F1ED924CF8091A8029091A9027C
:10406000892B09F41DCF8D819E81B6D3FFEF21EE00
:1040700084E0F15020408040E1F700C00000A2D170
:104080000FCF9093B4028093B30208950E94A312BD
:10409000811103C08091B2020895E091B302F091C2
:1040A000B402309729F00190F081E02D0995089530
:1040B00080E00895E091B302F091B402309721F0CE
:1040C0000280F381E02D09950895409100015091FF
:1040D00001019A012E5F3F4F485F5F4F80E0F90179
:1040E00090812F5F3F4F91118F5F42175307B9F7B0
:1040F0000895882371F02091000130910101F901A8
:104100003296285F3F4F9191981729F0E217F307F5
:10411000D1F780E0089581E008959C01FC0132967A
:104120008FEF90E04191461751F08F3F19F4411104
:1041300001C0892F9F5F9630A9F78F3F09F408953A
:10414000280F311D87FD3A95F901628308959C017E
:10415000FC013296285F3F4F8191861303C0DF0137
:1041600011971C92E217F307B9F70895682F809111
:10417000000190910101D1CF0895682F8091000135
:1041800090910101E4CF0895E0910001F0910101C7
:10419000329686E0DF011D928A95E9F70895089529
:1041A000FECF08958F5F8093B502FACF089583E024
:1041B0008093B502F5CF0895F5CF089581E08093FF
:1041C000B502EECF0895FACF089508950895FECF71
:1041D000089508950895F9CF0895CF93FADF0E94C6
:1041E0000612F8DFC0E08C2F0E94E710811105C095
:1041F000CF5FCA30C1F7CF91089581E0FCCF85B77A
:10420000806885BF85B7806885BF08951F921FB6F7
:104210001F9211248F939F93AF93BF938091B60207
:10422000811113C08091DF029091E002A091E10220
:10423000B091E2024196A11DB11D8093DF029093DF
:10424000E002A093E102B093E202BF91AF919F918F
:104250008F911F901FBE1F9018958091E7028430A8
:1042600031F10E9441041092B60288E190E020E40E
:104270000FB6F894A895809360000FBE209360005D
:1042800083B7817F846083BF83B7816083BF789465
:10429000889583B78E7F83BF0FB6F894A8958091D9
:1042A0006000886180936000109260000FBE0895E6
:1042B0000E9439070C944504089582E084BD93E080
:1042C00095BD9AEF97BD80936E0008952FB7F8942F
:1042D0008091DF029091E002A091E102B091E202B0
:1042E0002FBF0895A4E0B0E0E8E7F1E20C94A02A23
:1042F0008FB7F8942091DF023091E0024091E10203
:104300005091E20229833A834B835C838FBF69819A
:104310007A818B819C812496E2E00C94BC2A9C01DA
:104320004FB7F8948091DF029091E002A091E102F2
:10433000B091E2024FBF821B930B0895A4E0B0E05E
:10434000E4EAF1E20C949E2A462F572FBC012FB7C6
:10435000F8948091DF029091E002A091E102B09187
:10436000E2022FBF8C019D01041B150B260B370B9E
:10437000C901B8012496E4E00C94BA2A78941F92FB
:104380001FB61F9211248F939F93AF93BF93809179
:10439000DF029091E002A091E102B091E202019669
:1043A000A11DB11D8093DF029093E002A093E10272
:1043B000B093E202BF91AF919F918F911F901FBE6A
:1043C0001F90189587E797E790930108809300085E
:1043D00088E19AE00FB6F894A895809360000FBE2C
:1043E00090936000FFCF88E19AE00FB6F894A8950B
:1043F000809360000FBE90936000FFCF8EE14A9BD8
:1044000003C081508111FBCF4A9BFECF08955A987B
:1044100080E28A95F1F75A9A0895FC013BE03A95BB
:10442000F1F798E020E080E031E040E14A95F1F7D3
:10443000880F4A9B02C08160232742E04A95F1F72A
:10444000000040E14A95F1F791509111EECF90E1D3
:104450009A95F1F799B132E03A95F1F7000040E111
:104460004A95F1F792FB992790F992272081920FB4
:1044700090830895A1E0B0E0E0E4F2E20C949C2A7D
:1044800019828C017C01E60EF11C0E151F0541F40A
:1044900081E09981911180E02196E6E00C94B82AA0
:1044A000ADDFCE010196B9DFF80181938F01EDCF29
:1044B000529A5A9A089552985A9AEA9AE9E6F0E07E
:1044C00080818F7C808308956150770B91E001C0DB
:1044D000990F6A95EAF7692F90E021E0611108C011
:1044E000992399F05A9A80E28A95F1F75A9808959B
:1044F000362F3823332339F05A9A922730E23A95EF
:10450000F1F76695EBCF5A98F9CF5A98ECCFFF9216
:104510000F931F93CF93DF93EC018C01060F111DB6
:10452000C017D10729F4CDB7DEB7E5E00C94B92A5E
:10453000F9906DDF68E08F2DC7DFF2CF1F920F92E9
:104540000FB60F9211240F931F932F933F934F9306
:104550005F936F937F938F939F93AF93BF93EF93EB
:10456000FF93CF93DF930F92CDB7DEB7198246DF6B
:10457000CE01019652DF082F069506950695982FD5
:1045800092959570202F2570920F292F2370969564
:104590009695920F982797708981892B811158C021
:1045A000053008F055C080E18A95F1F75A9A529A81
:1045B00082E08A95F1F700C05A9888E0089F800150
:1045C0001124D801AD5FBE4F1696ED91FC9117975F
:1045D0003097A9F0609148017091490114962D918E
:1045E0003C911597260F371F11968D919C9112972C
:1045F000680F791F13964C9113978C910995F801C8
:10460000ED5FFE4F6381662349F0209148013091B0
:10461000490184819581820F931F79DFF8DE80E163
:104620008A95F1F75A9852985A9A80E18A95F1F74B
:10463000F801ED5FFE4F6081662349F0209148014B
:104640003091490181819281820F931F13DFD6DE61
:104650000F90DF91CF91FF91EF91BF91AF919F911B
:104660008F917F916F915F914F913F912F911F910A
:104670000F910F900FBE0F901F9018950F931F93DF
:10468000CF93DF938C0105970CF05FC0F894529A9A
:104690005A9885E08A95F1F70000C02FC695C5703D
:1046A000802F8570C80F8C2F8370C695C69593E0B8
:1046B000000F111F9A95E1F7C80FC8018C2BEC0170
:1046C000A6DE00C068E08C2FFFDE90E19A95F1F73E
:1046D00052985A9A4A9B31C087E090E04A992FC07D
:1046E000F801ED5FFE4F6381662359F02091480188
:1046F0003091490184819581820F931FBBDE88230D
:1047000009F17CDE80E28A95F1F75A98529A90E19D
:104710009A95F1F7F801ED5FFE4F6081662349F04D
:10472000209148013091490181819281820F931F2C
:10473000EEDE6DDE789481E009C000C0CBCF01973A
:10474000009749F4529A5A9A789480E0DF91CF9179
:104750001F910F91089500C0C1CF8091BF020895AD
:10476000089508950895282FCB01BA013091E702EA
:104770003430D9F42F702093E9002FEF3091E80006
:1047800035FD07C035ED3A95F1F7000021502111B4
:10479000F5CF2091E80025FF08C040E050E0F6D1B9
:1047A0008091E8008E778093E8000895CF93DF939F
:1047B000D82FC92F48E050E0682F792F81E0D3DF50
:1047C00088E0ED2FFC2FA7EBB2E001900D928A95C7
:1047D000E1F7DF91CF910895792F603229F440E21B
:1047E00050E0682F82E0BFCF08958091E6028111EA
:1047F00007C09FD3F6D38091E20084608093E200EB
:1048000008951092E6020895D9CC08956091E302CC
:1048100081E0611101C080E0CACC08959091E70267
:1048200081E0943009F080E06091E302C5CC089506
:1048300042E061EC81E0F9D242E261EC82E0F5D243
:1048400042E260EC83E0F1D29091E70281E09430A3
:1048500009F080E06091E302A5CC08958091E9021F
:10486000893081F148F4823009F49CC0833009F426
:1048700058C0813041F008958A3009F484C08B30EB
:1048800009F46AC008958091E802813A09F048C0AD
:104890008091E800877F8093E8008091EC029091FE
:1048A000ED02892B59F060E080E090E070E008D2E2
:1048B0008091E8008B778093E800089568E087EBAB
:1048C00092E0F4CF8091E802813251F58091EC02C0
:1048D0009091ED02892B21F58091E800877F8093EC
:1048E000E8008091E80082FF17C09091F30080916A
:1048F000F200029731F48091F100813011F086309E
:1049000021F48091F1008093BF028091E8008B77C1
:104910008093E800BED204C08091E7028111E1CF0C
:1049200008958091E802813AD9F78091EC02909144
:10493000ED02892BA9F78091E800877F8093E8003A
:104940008091E80080FFFCCF809130018093F100DE
:104950008091E8008E77DCCF8091E802813201F708
:104960008091EC029091ED02892BD1F68091E800C4
:10497000877F8093E8008DD28091EA028093300196
:104980000C94390708958091E802813249F68091AC
:10499000E800877F8093E8007CD28091EB028093CF
:1049A000C00208958091E802813A09F0B9CF809160
:1049B000E800877F8093E8008091E80080FFFCCFCB
:1049C0008091C002C3CF84B7877F84BF0FB6F894AD
:1049D000A8958091600088618093600010926000CB
:1049E0000FBE80E890E00FB6F8948093610090933A
:1049F00061000FBEE8CB08959CD2F3D2E2EEF0E066
:104A000080818460808378945BC5089586E291E01C
:104A100038CB08958091E702853029F48091E70230
:104A2000853011F045CC089518DC8091E50288238B
:104A3000A9F3D3DB882391F393D00E943907EECFFB
:104A4000A0E2B0E0E5E2F5E27BC58091E7028430C8
:104A500081F483E08093E9008091E80082FF09C03F
:104A60008091E80085FD08C08091E8008B778093F5
:104A7000E800A096E2E080C540E050E060E270E02F
:104A8000CE010196D0D08091E8008B778093E8002A
:104A900060E2CE010196CBD9ECCF9A014091EE02B3
:104AA0005091EF0201C00895FC01D9018F2F992781
:104AB00083309105E1F060F48130910509F441C043
:104AC000029709F443C080E090E020E030E024C089
:104AD0008132910539F182329105A9F7611571058D
:104AE000D1F122E135E061307105B1F0ECCFCF01B9
:104AF0009927E230A1F08330910538F4E4EAF4E03C
:104B0000892B39F4EAEBF4E004C0ECE6F4E0039717
:104B1000D1F6849190E09F012D933C930895EAE8AB
:104B2000F4E0F7CF89E090E020ED34E06115710505
:104B300099F389E090E029EE34E06130710561F38A
:104B4000C2CF82E190E020E035E0E6CF82E490E061
:104B50002EEB34E0E1CF84E490E024E335E0DCCFD9
:104B600080E189BD82E189BD09B400FEFDCF80915D
:104B7000D8008F7D8093D8008091E0008260809380
:104B8000E0008091E00081FDFCCF0895AF92BF92DC
:104B9000CF92DF92FF920F931F93CF93DF936C011D
:104BA000EB018A0195D1F82E811123C00115110561
:104BB00039F0F80180819181C81BD90BC80ED91E2C
:104BC000A12CB12C2097A9F08091E80085FD21C08F
:104BD0008091E8008E778093E80001151105A1F01F
:104BE000F801808191818A0D9B1D9183808385E0EE
:104BF000F82E8F2DDF91CF911F910F91FF90DF90B5
:104C0000CF90BF90AF90089563D18823E9F2F82E3A
:104C1000F0CFF60181916F018093F1002197FFEFB2
:104C2000AF1ABF0ACFCFAF92BF92CF92DF92FF925F
:104C30000F931F93CF93DF936C01EB018A0148D14F
:104C4000F82E811123C00115110539F0F80180817A
:104C50009181C81BD90BC80ED91EA12CB12C20974D
:104C6000A9F08091E80085FD21C08091E8008B7754
:104C70008093E80001151105A1F0F8018081918170
:104C80008A0D9B1D9183808385E0F82E8F2DDF9107
:104C9000CF911F910F91FF90DF90CF90BF90AF9079
:104CA000089516D18823E9F2F82EF0CF8091F10013
:104CB000F60181936F012197FFEFAF1ABF0ACFCFA3
:104CC000FC019B018091EE029091EF0286179707FD
:104CD00018F0672B61F0C90140E0009771F44111B1
:104CE0000CC08091E80082FF35C080E0089580917B
:104CF000E8008E778093E800EECF2091E702222330
:104D0000A9F12530A9F12091E80023FD2DC02091C3
:104D1000E80022FDE6CF2091E80020FFDECF3091B1
:104D2000F3002091F200009719F02830310558F077
:104D300041E02830310509F040E02091E8002E776D
:104D40002093E800CACF41914093F10001972F5F73
:104D50003F4FE9CF8091E702882341F0853041F051
:104D60008091E80083FFBDCF81E0089582E008953F
:104D700083E00895FC019B018091EE029091EF0287
:104D80008617970718F0672B61F0C90140E000977C
:104D900071F441110CC08091E80082FF36C080E0C0
:104DA00008958091E8008E778093E800EECF2091FF
:104DB000E7022223B1F12530B1F12091E80023FD73
:104DC0002EC02091E80022FDE6CF2091E80020FFD0
:104DD000DECF3091F3002091F200009719F02830D7
:104DE000310558F041E02830310509F040E02091CC
:104DF000E8002E772093E800CACF44914093F10059
:104E0000319601972F5F3F4FE8CF8091E7028823CB
:104E100041F0853041F08091E80083FFBCCF81E014
:104E2000089582E0089583E00895982F973028F040
:104E30008F708093E90081E008959093E900242F1A
:104E4000762F50E0981731F07091EC002091ED0032
:104E50005091F00021FD02C09F5FE8CF3091EB0040
:104E60003E7F3093EB003091ED003D7F3093ED00BD
:104E70003091EB0031603093EB007093EC002093A5
:104E8000ED005093F0002091EE0027FDE5CF80E08B
:104E900008958091E80287FF13C08091E80082FFA7
:104EA00006C08091E8008B778093E80004C0809171
:104EB000E7028111F2CF08958091E7028823D9F3A8
:104EC0008091E80080FFF8CF8091E8008E77ECCFEA
:104ED0002091E4003091E50095E6A9018091EC0075
:104EE0008170882331F08091E80080FF06C080E067
:104EF00008952091E80022FD1BC08091E7028823DD
:104F000091F0853091F08091EB0085FD10C02091EB
:104F1000E4003091E5004217530701F391509111DD
:104F2000DCCF84E0089582E0089583E0089581E075
:104F3000089568D06FD0E0EEF0E0808181608083DA
:104F4000E8EDF0E080818F77808319BCA7EDB0E0B9
:104F50008C918E7F8C9380818F7E80831092E6026D
:104F600008950F931F93CF93DF934CD053D0C8ED88
:104F7000D0E088818F778883888180688883888162
:104F80008F7D888319BC1092E7021092E302109281
:104F9000E5021092E40200EE10E0F80180818B7FC0
:104FA000808388818160888342E060E080E03DDF2B
:104FB000E1EEF0E080818E7F8083E2EEF0E08081A0
:104FC00081608083808188608083F80180818E7F0A
:104FD0008083888180618883DF91CF911F910F91B9
:104FE0000895E8EDF0E080818F7E8083E7EDF0E0CA
:104FF00080818160808384E082BF81E08093E602CB
:10500000B0CF0895E8EDF0E080818E7F808310922C
:10501000E20008951092DA001092E10008951F92C4
:105020000F920FB60F9211242F933F934F935F93DC
:105030006F937F938F939F93AF93BF93EF93FF9360
:105040008091E10082FF0AC08091E20082FF06C0E9
:105050008091E1008B7F8093E10031D28091DA0072
:1050600080FF18C08091D80080FF14C08091DA00C2
:105070008E7F8093DA008091D90080FF8FC080E11D
:1050800089BD82E189BD09B400FEFDCF81E0809336
:10509000E702ABDB8091E10080FF18C08091E20065
:1050A00080FF14C08091E2008E7F8093E2008091A7
:1050B000E20080618093E2008091D800806280935A
:1050C000D80019BC85E08093E702A0DB8091E10065
:1050D00084FF28C08091E20084FF24C080E189BD64
:1050E00082E189BD09B400FEFDCF8091D8008F7D9B
:1050F0008093D8008091E1008F7E8093E1008091C1
:10510000E2008F7E8093E2008091E20081608093D4
:10511000E2008091E302882309F445C084E0809393
:10512000E7027CDB8091E10083FF27C08091E200F1
:1051300083FF23C08091E100877F8093E10082E0BC
:105140008093E7021092E3028091E1008E7F8093CA
:10515000E1008091E2008E7F8093E2008091E20086
:1051600080618093E20042E060E080E05EDE80915A
:10517000F00088608093F00047DBFF91EF91BF91D2
:10518000AF919F918F917F916F915F914F913F91DF
:105190002F910F900FBE0F901F90189519BC109271
:1051A000E7022FDB77CF8091E30087FF02C083E027
:1051B000B6CF81E0B4CF1F920F920FB60F92112499
:1051C000FF920F931F932F933F934F935F936F9390
:1051D0007F938F939F93AF93BF93CF93DF93EF937F
:1051E000FF9309EE10E0F8018081C091EC00C795B3
:1051F000CC27C7958F70FC2EF82A1082C0EFD0E024
:105200008881877F888378941ED0F80110828881F6
:1052100088608883CF2DCF70C083FF91EF91DF919D
:10522000CF91BF91AF919F918F917F916F915F913E
:105230004F913F912F911F910F91FF900F900FBEB3
:105240000F901F901895AAE2B0E0E8E2F9E277C16A
:1052500088EE92E0FC0101962091F100208322E08B
:10526000803F9207B9F7FADA8091E80083FF37C0F0
:105270008091E8029091E9029A3088F5E92FF0E0F8
:10528000E656F44D40C1803889F0823841F580916E
:10529000EC028F70873018F58093E9008091EB0065
:1052A00085FB882780F91092E90006C08091E4020E
:1052B0009091E502911182609091E800977F909320
:1052C000E8008093F1001092F1008091E8008E7761
:1052D00022C0811115C08091EA02813001F18091D4
:1052E000E80083FF0AC08091E800877F8093E80090
:1052F0008091EB0080628093EB00AA96E3E03BC1D3
:10530000823069F78091EA02882381F01092E900E7
:105310008091E800877F8093E800BBDDE0CF81E0EB
:10532000933009F080E08093E502F0CF8091EC02A9
:105330008F702FEF280F263090F68093E900209190
:10534000EB0020FFE3CF933031F48091EB008062DB
:105350008093EB00DBCF9091EB0090619093EB009A
:1053600021E030E0A90102C0440F551F8A95E2F701
:105370004093EA001092EA008091EB008860E8CF49
:105380008111ADCF1091EA021F778091E300807800
:10539000812B8093E3008091E800877F8093E80071
:1053A00078DD8091E80080FFFCCF8091E300806889
:1053B0008093E30083E0111101C082E08093E70253
:1053C0008ECF8058823008F08ACF8091EA02909187
:1053D000EB028C3D53E0950791F583E08A838AE2E6
:1053E00089834FB7F894DE01139620E03EE051E246
:1053F000E32FF0E050935700849120FF03C0829583
:105400008F703F5F8F708A30C0F0895C90E08D9321
:105410009D932F5F243161F74FBF8091E800877F14
:105420008093E8006AE270E0CE01019649DC809149
:10543000E8008B778093E80052CF805DE7CF6091E2
:10544000EC027091ED02AE014F5F5F4F26DBBC01B5
:10545000892B09F444CF8091E800877F8093E8008E
:1054600089819A8187DCE3CF803809F038CF809139
:10547000E800877F8093E8008091E3028093F10049
:1054800024CF81112CCF9091EA02923008F027CFDF
:105490008091E800877F8093E8009093E302F9DC35
:1054A0008091E302882329F084E08093E702C0D949
:1054B00016CF8091E30087FDF7CF81E0F6CF089506
:1054C000CF938091E702882391F08091E900C09109
:1054D000EC00C795CC27C7958F70C82B1092E900B8
:1054E0008091E80083FDAFDECF70C093E900CF91DB
:1054F00008951FDD1092E70208958091E300881F50
:105500008827881F0895EE0FFF1F0590F491E02D66
:105510000994692796276927782787277827089588
:105520002F923F924F925F926F927F928F929F92B3
:10553000AF92BF92CF92DF92EF92FF920F931F93A1
:10554000CF93DF93CDB7DEB7CA1BDB0B0FB6F89452
:10555000DEBF0FBECDBF09942A88398848885F8492
:105560006E847D848C849B84AA84B984C884DF8003
:10557000EE80FD800C811B81AA81B981CE0FD11DE7
:105580000FB6F894DEBF0FBECDBFED010895FB014D
:10559000DC0102C005900D9241505040D8F70895AB
:1055A000FB01DC0104C08D910190801921F4415070
:1055B0005040C8F7881B990B0895FB01DC0102C01D
:1055C00001900D9241505040D8F70895DC0101C080
:1055D0006D9341505040E0F70895DC01CB01FC0190
:1055E000F999FECF06C0F2BDE1BDF89A319600B43C
:1055F0000D9241505040B8F70895F999FECF92BDF1
:1056000081BDF89A992780B50895A8E1B0E042E0FD
:1056100050E0E5CFDC01A40FB51F4150504040F0F1
:10562000CB01840F951F2E9105D041505040D8F7E3
:105630000895262FF999FECF92BD81BDF89A019762
:1056400000B4021639F01FBA20BD0FB6F894FA9ACA
:10565000F99A0FBE08950396272FECDFEADF252F76
:10566000E9DF242FE7CF0196272FE4DFE2CFDC012B
:10567000CB0102C02D9105D041505040D8F708957C
:10568000262FF999FECF1FBA92BD81BD20BD0FB65E
:10569000F894FA9AF99A0FBE01960895F894FFCFFC
:1056A000261546155215421542158515B015C31518
:1056B0001D16221642154215421529165E1BD21BD5
:1056C000661B301B341B6A1B381B6E1B7A1B441B6A
:1056D000CB1B481B7E1B4C1B821BAA1B501B861B13
:1056E000B11B561B8C1B941B3C1B721B401B761B57
:1056F0005A1B901BA01BBA1BC91B2A1B621BD91B60
:10570000421D481D331D3C1D4E1D541D5A1D4B1F6F
:10571000581F8E1FA21FB21FBE1FC01FC01FC01F59
:10572000461F2C20C51FCA1FD51FE61F02200420BC
:1057300006201B20432969296F2969296F29C0295F
:08574000E1296F29342A412AF6
:10574800C401010000000100000000000000050184
:105758000000000506000000000000040B00000027
:10576800000000030201AD23D623B123B223B023E6
:1057780001A7A79C4CE0B8008D00000000F6F731A7
:105788003332366697C63435EC0100000000000558
:02579800030804
:00000001FF
